:020000040800F2
:10400000E8EF0020B5420008756F0008D5430008AE
:10401000716F0008B15900083D96000800000000CB
:10402000000000000000000000000000F97F000810
:10403000C9420008000000002343000899810008DD
:10404000CF420008CF420008CF420008CF4200080C
:10405000CF420008CF420008CF420008CF420008FC
:10406000CF420008CF420008CF420008CF420008EC
:10407000CF420008CF420008CF420008CF420008DC
:10408000CF420008CF420008CF420008CF420008CC
:10409000B5590008CF420008CF420008CF420008BF
:1040A000CF420008CF420008CF420008CF420008AC
:1040B000CF420008CF420008CF420008CF4200089C
:1040C000CF420008CF420008CF420008CF4200088C
:1040D000CF420008654F0008CF420008CF420008D9
:1040E000CF420008CF420008CF420008CF4200086C
:1040F000CF420008CF420008CF420008CF4200085C
:10410000CF420008CF420008CF420008CF4200084B
:10411000CF420008CF420008CF42000811850008B6
:10412000CF420008CF420008CF420008CF4200082B
:10413000CF420008CF420008CF420008CF4200081B
:10414000055A0008CF420008CF420008CF420008BD
:10415000CF420008CF420008CF420008CF420008FB
:10416000CF420008CF420008CF420008CF420008EB
:10417000CF420008CF420008CF420008CF420008DB
:10418000CF420008CF4200085343305800000000DF
:10419000000000000000000000000000000000001F
:1041A00000F002F800F076F80AA090E8000C8244D3
:1041B0008344AAF10107DA4501D100F06BF8AFF2B0
:1041C000090EBAE80F0013F0010F18BFFB1A43F0F5
:1041D0000103184724470100444701000A444FF0F7
:1041E000000C10F8013B13F0070408BF10F8014B56
:1041F0001D1108BF10F8015B641E05D010F8016B9B
:10420000641E01F8016BF9D113F0080F1EBF10F8FE
:10421000014BAD1C0C1B09D16D1E58BF01F801CB21
:10422000FAD505E014F8016B01F8016B6D1EF9D5A4
:104230009142D6D3704700000023002400250026B9
:10424000103A28BF78C1FBD8520728BF30C148BFF9
:104250000B607047642900F01181732900F0998484
:10426000002070471FB513F0A5F89DE8030000F08B
:1042700015FD00F0F1FD04000020002112F00AFFFE
:10428000401C606000F0B4FB1FBD10B5002000F0C2
:10429000BCFC10BD00F0BAFD1146FFF7E3FF0BF0C8
:1042A0000DFF00F005FE03B4FFF7EFFF03BC00F0C5
:1042B000A7FD00000948804709480047FEE7FEE7E0
:1042C000FEE7FEE7FEE7FEE7FEE7FEE7FEE7FEE7C6
:1042D00004480549054A064B70470000A9810008BB
:1042E000A1410008E8E90020E8EF0020E8EB002009
:1042F000E8EB0020EFF3108072B6704780F310886F
:104300007047394A1368012B04D04FF00103136042
:10431000364A1060364A116036484FF080510160CD
:104320007047EFF3108272B62F48016821B34FF047
:10433000000101602D48016891B1EFF309811EF081
:10434000100F08BF21ED108B21E9F00F4FF0000492
:104350001EF0100F08BF012441F8044D00680160F1
:1043600023490968096808C9B1E8F00F002B18BF94
:10437000B1EC108B81F3098882F310884EF0100E97
:10438000002B18BF2EF0100E4EF0040E7047184987
:104390000860EFF3148222F0040282F314881349B8
:1043A0004FF00000086010494FF00100086012480B
:1043B0004FF47F01D0F8002041EA020101600D486E
:1043C0004FF0805101600D480068006880F3088854
:1043D00062B67047EFF3098000B50EF0E3FC5DF8BC
:1043E00004EB4EF0040E7047640400205C040020CF
:1043F0006004002004ED00E020ED00E008ED00E0A6
:104400000FB41CB5074B06AA7B446946009005987B
:1044100000F095FB0020694600F0A4FB1CBC5DF891
:1044200014FB00005907000070B50C460546012A30
:1044300005D02878800600D5EA69002302E0012330
:1044400005E05B1C934202D2E05C0028F9D1A86928
:10445000E618C01AA861286A184428622846AFF3F3
:10446000008004E0D5E9012114F8010B9047B44223
:10447000F8D32846AFF3008070BD00002DE9F0416D
:104480000646002410687529314616A510D0AFF3F2
:104490000080002802DA404213A507E031688A074D
:1044A00001D512A502E0490704D511A5012401E0B8
:1044B000AFF3008000210A2206F1240709E0B0FBD7
:1044C000F2FCB0FBF2F302FB1C00303078541846CB
:1044D000491C0028F3D123462A463046BDE8F04166
:1044E00000F0CFBA000000002D0000002B000000FB
:1044F000200000002DE9F05F894604464FF0000AD5
:10450000DFF824B1FB44C0F820A02046E1688847CA
:1045100000287DD0252806D0D4E901219047206AC3
:10452000401C2062F1E700255F462046E16888478D
:104530002028064607DB312E05D2B81910F8200CCA
:1045400008B10543F1E7A80701D525F00405C4F833
:104550001CA00027C4F818A02A2E09D0304606F067
:10456000C9FE38B304EB8708303EC8F8186019E07C
:1045700059F8041B204604EB87029161E1688847E3
:10458000012F064618D1E069002820DA25F0200521
:104590001DE0D8F8180000EB800006EB4000303832
:1045A000C8F818002046E1688847064606F0A2FED3
:1045B0000028EED1012F0AD02E2E08D12046E16826
:1045C00088477F1C0646022F45F02005C4DBA06902
:1045D000002803DA404245F00105A061E80701D058
:1045E00025F01005A6B1A6F14100192802D8203601
:1045F00045F400654A463146204625604D46FFF7A2
:1046000029FE60B1012807D0ED1D25F0070000E06C
:1046100007E000F1080978E705F1040975E730467D
:104620007AE7206ABDE8F09F1C39010070B50646A4
:1046300000F0F4F90468054630460A22002100F033
:10464000ACFA2C6070BD2DE9F041074615460E46C8
:10465000102000F0E7F904000AD06760C4E90265A1
:1046600000F0D8F90168216004600020BDE8F08105
:104670000120FBE740EA0103024630B59B0710D159
:104680004FF0013400E008C208C91D1B9D4315EA24
:10469000C41FF8D013F0FF0102F8011B0DD01B0A54
:1046A000F8E711F8013B002B02F8013B05D011F8A7
:1046B000013B002B02F8013BF3D130BD10B5431C88
:1046C00002E010F8011B71B18107FAD14FF00132FD
:1046D00002C88C1A8C4314EAC211F9D0C01A0A0617
:1046E00003D0C01E10BDC01A10BD0A0401D0801E28
:1046F00010BD0902FCD0401E10BD40EA010370B598
:104700009B072ED14FF00136042A2AD308C810C9BE
:104710009D1B9D43121F15EAC61517D0D8B2E1B2F2
:10472000401A50EA056110D198B2A1B2401A50EA7D
:1047300005410AD123F07F4024F07F41401A50EA1E
:10474000052102D1180EA0EB146070BDA342DBD08E
:1047500018BA21BA884201D9012070BD4FF0FF304C
:1047600070BD0AB9002070BD10F8013B11F8014B73
:1047700063B1A3420AD1521E08D010F8013B11F8D0
:10478000014B1BB1A34201D1521EEDD1181B70BDCC
:10479000032A40F2308010F0030C00F0158011F86D
:1047A000013BBCF1020F624498BF11F801CB00F845
:1047B000013B38BF11F8013BA2F1040298BF00F899
:1047C00001CB38BF00F8013B11F0030300F0258056
:1047D000083AC0F0088051F8043B083A51F804CB7D
:1047E000A0E80810F5E7121D5CBF51F8043B40F843
:1047F000043BAFF30080D20724BF11F8013B11F84E
:1048000001CB48BF11F8012B24BF00F8013B00F891
:1048100001CB48BF00F8012B704710B5203AC0F01B
:104820000B80B1E81850203AA0E81850B1E81850B1
:10483000A0E81850BFF4F5AF5FEA027C24BFB1E8EE
:104840001850A0E8185044BF18C918C0BDE810405F
:104850005FEA827C24BF51F8043B40F8043B08BF68
:104860007047D20728BF31F8023B48BF11F8012B2F
:1048700028BF20F8023B48BF00F8012B70474FF0DB
:1048800000020429C0F0128010F0030C00F01B801D
:10489000CCF1040CBCF1020F18BF00F8012BA8BF2B
:1048A00020F8022BA1EB0C0100F00DB85FEAC17CEF
:1048B00024BF00F8012B00F8012B48BF00F8012BA2
:1048C00070474FF0000200B51346944696462039D3
:1048D00022BFA0E80C50A0E80C50B1F12001BFF4B9
:1048E000F7AF090728BFA0E80C5048BF0CC05DF81F
:1048F00004EB890028BF40F8042B08BF704748BF6D
:1049000020F8022B11F0804F18BF00F8012B7047E0
:1049100010B5044610F0030F08BF11F0030F40F06C
:1049200015804FF0013E121FC0F20E8051F8043B7B
:10493000A3EB0E0C2CEA030C1CEACE1C08BF40F8BB
:10494000043BF0D0A1F1040102F10402521E08DB85
:1049500011F8013B002B00F8013BF7D11146FFF79E
:104960008EFF204610BD00004FF0013C50F8042B94
:1049700051F8043B9A4221D1A2EB0C03934313EA72
:10498000CC1317D150F8042B51F8043B9A4215D19F
:10499000A2EB0C03934313EACC130BD150F8042B76
:1049A00051F8043B9A4209D1A2EB0C03934313EA5A
:1049B000CC13DBD04FF00000704700BFD01A01BA13
:1049C000B1FA81F101F0180122FA01F0CB40C1F1F6
:1049D0002001DBB2C0B2C01A2CFA01F3D11A914304
:1049E00011EAC311E6D17047704770477047000065
:1049F00070B5064C7C44064D7D4403E0206820449D
:104A00008047241DAC42F9D170BD00004040010038
:104A10004840010000487047C0E900200048704746
:104A200088E9002070B5064600F01CF9056806F11B
:104A30000B0020F00704B4429CBF002070BD2B4641
:104A40006A68BAB11068A04210D304F10801884224
:104A50003CBF5068586007D3516810194160116815
:104A6000091B016058601460101D70BD1346526828
:104A7000002AE7D12146284600F0FCF80028DED1C4
:104A800070BD2DE9F0470D4699469246044600F167
:104A900024080168880604D5E06921F0100121602E
:104AA00000E00120A84201DD471B00E00027A169CA
:104AB0007A1902EB0900081AA0612078C00602D416
:104AC0002046AFF30080002608E0D4E901211AF85F
:104AD00006009047206A401C761C20624E45F4DB9D
:104AE0002078C0060AD52046AFF3008006E0D4E95E
:104AF000012130209047206A401C2062381EA7F117
:104B00000107F4DC07E0D4E9012118F8050090471B
:104B1000206A401C2062281EA5F10105F3DC204616
:104B2000AFF300802078000602D50220BDE8F087B0
:104B30000120FBE701694A1C02610878704700B553
:104B40008FB0CDE901310021059105497944CDE9C6
:104B5000031011466846FFF7CDFC0FB000BD000002
:104B6000E5FFFFFF0A6802F8010B0A60704710B505
:104B7000436913B1AFF3008001E0FFF755FC01205A
:104B800010BD127800F124010A7000224A7001223F
:104B9000EDE711684FF0FF32E9E72DE9F047914664
:104BA0000F4680460446002614F8015B2DB100F044
:104BB00051F80068405DC007F6D12B2D02D02D2D95
:104BC00018D0641E4A463946204600F0C4F827B182
:104BD0003968A14201D1C7F800804FF00204710585
:104BE0000BD54042002803DDFFF718FF0460A00743
:104BF000BDE8F08746F48066E4E70028F8DAFFF7BE
:104C00000DFF04606FF00040F2E72DE9F041064629
:104C1000FFF700FF8046454613E016B1E068B0425A
:104C20000ED120682860D4E90101D8F800708847C7
:104C3000204600F069F8D8F80000B842EBD100E057
:104C400025462C68002CE8D1BDE8F081004870476B
:104C500088E9002010B500F0FFF8001D10BD00BF6E
:104C6000352401000048704790E9002070477047E4
:104C70007047704738B504460A4600206946AFF3CE
:104C80000080002808BF38BD02460099204600F089
:104C9000E7F8012038BD012000F02CB9F8B5AFF3DA
:104CA0000080054600200C46102000BF0646A819CB
:104CB000A0420DD9324669460020AFF300800700BC
:104CC00008BF00F017F90098A04218BF0546C419A4
:104CD000FFF7C8FF05600746F01D20F007004619E2
:104CE000284600F00AF8B44208BFF8BDA21B3146BE
:104CF0003868BDE8F84000F0B3B800210160C0E9B1
:104D0000011070471020704770B50446051FFFF76B
:104D1000A9FF0068002C14BF446870BD002C18BFA8
:104D2000AC423CBF20466468F8D301680A18AA4226
:104D300018BF456003D12A68054611440160286800
:104D40004119A1421CBF6C6070BD61686960216837
:104D50000844286070BD2DE9F05F824615468B46F9
:104D600000270AF10104B9460078302801D09DB12E
:104D700013E014F8010B0127782803D0582801D03C
:104D800045B10AE00DB1102D07D1002714F8010B31
:104D9000102502E0082500E00A250026B0460EE0B6
:104DA00005FB080005FB06F101271FFA80F801EB5F
:104DB0001046B6F5803F00D3B94614F8010B2946DA
:104DC00000F068F80028EBDABBF1000F05D00FB156
:104DD000641E00E05446CBF80040B9F1000F06D045
:104DE000FFF71CFE02210160C81EBDE8F09F48EAE3
:104DF0000640FAE7002801D000F002B87047000032
:104E000001491820ABBEFEE7260002007546FFF7F9
:104E10001DFFAE4605006946534620F00700854653
:104E200018B020B5FFF754FABDE820404FF0000657
:104E30004FF000074FF000084FF0000B21F0070182
:104E4000AC46ACE8C009ACE8C009ACE8C009ACE8C5
:104E5000C0098D467047000000487047A8E900204F
:104E6000034640688C46002818BF88423CBF034672
:104E70004068F8D318681844884207D00CF1030042
:104E800020F00700001D411A521A0146081D0A6051
:104E9000FFF73ABF3A2800D2303820F02002412AEA
:104EA00001D3A2F13700884201D34FF0FF307047A1
:104EB00010B50446AFF300802046BDE81040FFF770
:104EC000F2B970B505460C460A2000E06D1C00F0F2
:104ED00018F835B128780028F8D102E0641C00F0F9
:104EE00010F814B120780028F8D1BDE870400A20ED
:104EF00000F007B810B500F00DF8BDE81040FFF75E
:104F000079BF08B569468DF800000320ABBE08BD27
:104F10007047000010B5012805D0002103A0FFF75D
:104F2000D0FF012010BD09A1F8E700005349475206
:104F3000544D454D3A204F7574206F662068656169
:104F400070206D656D6F7279000000003A20486531
:104F50006170206D656D6F727920636F727275700C
:104F60007465640010B540F22441084804F0EEF87E
:104F700050B1064804F02CFB0021054803F02AFF3D
:104F80000121034803F09EFB10BD0000001001400A
:104F90000014004070B504460D461148844205D007
:104FA0001048844202D01048844200D104E04FF4FB
:104FB000C9710E4807F01CF90DB1012D00D104E0B4
:104FC00040F29311094807F013F925B1A06840F0A9
:104FD0000100A06003E0A06820F00100A06070BDA7
:104FE000002001400021014000220140807F010893
:104FF00070B504460025206818B32068012820D029
:10500000206802281DD0206805281AD020680628AC
:1050100017D02068072814D02068092811D02068EC
:1050200011280ED0206812280BD02068152808D02F
:105030002068162805D02068172802D02068192873
:1050400000D104E040F259113F4807F0D1F8606800
:1050500058B16068B0F5803F07D06068B0F5003F98
:1050600003D06068B0F5403F00D104E04FF4AD716B
:10507000354807F0BDF8A06858B1A068B0F5804F7A
:1050800007D0A068B0F5004F03D0A068B0F5404F3E
:1050900000D104E040F25B112B4807F0A9F8E0686A
:1050A000D8B3E068B0F5807F37D0E068B0F5007F16
:1050B00033D0E068B0F5407F2FD0E068B0F5806F66
:1050C0002BD0E068B0F5A06F27D0E068B0F5C06FD6
:1050D00023D0E068B0F5E06F1FD0E068B0F5006F56
:1050E0001BD0E068B0F5106F17D0E068B0F5206F06
:1050F00013D0E068B0F5306F0FD0E068B0F5406FC6
:105100000BD0E068B0F5506F07D0E068B0F5606F85
:1051100003D0E068B0F5706F00D104E04FF4AE71D9
:10512000094807F065F80948056809480540D4E9C9
:1051300000010843A1680843E168084305430548A6
:10514000C0F8045370BD0000807F010804230140B3
:10515000E030FCFF0020014070B504460D461148C8
:10516000844205D01048844202D01048844200D1C5
:1051700004E040F21F410E4807F03AF80DB1012D4E
:1051800000D104E04FF48461094807F031F825B1FB
:10519000A06840F48070A06003E0A06820F48070F4
:1051A000A06070BD002001400021014000220140AC
:1051B000807F010870B504460D461148844205D031
:1051C0001048844202D01048844200D104E040F2EA
:1051D00037410E4807F00CF80DB1012D00D104E065
:1051E0004FF48761094807F003F825B1A06840F43F
:1051F0000070A06003E0A06820F40070A06070BDA3
:10520000002001400021014000220140807F010870
:105210001CB50020009001900121072002F078FDCC
:10522000FE20009003208DF8040000208DF8070078
:1052300069460D4801F0C0FC032000908DF8040081
:1052400000208DF807006946084801F0B5FC0720EA
:10525000009003208DF8040000208DF807006946B7
:10526000034801F0A9FC1CBD0000024000040240FC
:10527000000802402DE9F04105460C4600260027B3
:105280006148854205D06148854202D06048854228
:1052900000D103E0F0215F4806F0AAFF206858B172
:1052A0002068B0F1807F07D02068B0F1007F03D084
:1052B0002068B0F1407F00D103E0F121554806F0AD
:1052C00097FF207910B12079012800D103E0F22165
:1052D000504806F08DFF607910B16079012800D147
:1052E00003E0F3214B4806F083FFA06858B1A068A3
:1052F000B0F1805F07D0A068B0F1005F03D0A06874
:10530000B0F1405F00D103E0F421424806F070FFA5
:10531000E068D8B3E068B0F1807F37D0E068B0F1E2
:10532000007F33D0E068B0F1407F2FD0E068B0F16B
:10533000806F2BD0E068B0F1A06F27D0E068B0F1AB
:10534000C06F23D0E068B0F1E06F1FD0E068B0F12B
:10535000006F1BD0E068B0F1106F17D0E068B0F1BB
:10536000206F13D0E068B0F1306F0FD0E068B0F17B
:10537000406F0BD0E068B0F1506F07D0E068B0F13B
:10538000606F03D0E068B0F1706F00D103E0F521E9
:10539000204806F02DFF206918B12069B0F5006F94
:1053A00000D103E0F6211B4806F022FF207D0128F2
:1053B00003DB207D102800DC03E0F721154806F010
:1053C00017FF6E68144806402179206840EA0120E2
:1053D00006436E60AE6811480640D4E903100843E6
:1053E000A1680843617940EA41000643AE60EE6A75
:1053F00026F47006207D401EC0B2074346EA0756D9
:10540000EE62BDE8F0810000002001400021014073
:1054100000220140807F0108FFFEFFFCFDF7FFC076
:105420002DE9F04706460C46174698460025A94642
:105430006148864205D06148864202D06048864273
:1054400000D104E040F2CF215E4806F0D1FE1CB34B
:10545000012C21D0022C1FD0032C1DD0042C1BD0DA
:10546000052C19D0062C17D0072C15D0082C13D0DA
:10547000092C11D00A2C0FD00B2C0DD00C2C0BD0DA
:105480000D2C09D00E2C07D00F2C05D0102C03D0DA
:10549000112C01D0122C00D104E04FF43471494892
:1054A00006F0A6FE012F02DB102F00DC04E040F224
:1054B000D121444806F09CFEB8F1000F14D0B8F199
:1054C000010F11D0B8F1020F0ED0B8F1030F0BD0BD
:1054D000B8F1040F08D0B8F1050F05D0B8F1060FE8
:1054E00002D0B8F1070F00D104E040F2D2213548D4
:1054F00006F07EFE092C13DDF568A4F10A0000EB2E
:105500004001072000FA01F925EA0905A4F10A0083
:1055100000EB400008FA00F945EA0905F5600EE0E5
:10552000356904EB4401072000FA01F925EA090571
:1055300004EB440008FA00F945EA09053561072F34
:1055400011DA756B781E00EB80011F2000FA01F95B
:1055500025EA0905781E00EB800004FA00F945EA07
:105560000905756326E00D2F11DA356BF81F00EB86
:1055700080011F2000FA01F925EA0905F81F00EB58
:10558000800004FA00F945EA0905356312E0F56A7E
:10559000A7F10D0000EB80011F2000FA01F925EAB8
:1055A0000905A7F10D0000EB800004FA00F945EAB7
:1055B0000905F562BDE8F0870020014000210140A7
:1055C00000220140807F010810B50446094884424A
:1055D00005D00948844202D00848844200D104E042
:1055E00040F24631064806F003FEA06840F08040D5
:1055F000A06010BD002001400021014000220140B8
:10560000807F01083EB50748C46CD7200290012076
:1056100001AB024602A9009020460FF087FA9DF8E0
:1056200004003EBDA4A700200146002070470000F2
:10563000F8B507460D46144627B97022234924A021
:105640000CF0C6FE102D0BD1214611B94FF0FF30E2
:10565000F8BD4FF400704860C0000860886000BF6B
:10566000122D31D12646307910B101282AD116E009
:1056700081208DF800003088C0F387108DF801007C
:1056800030788006000E8DF8020000208DF80300AF
:1056900013490422C86C69460FF03CFA12E0C72097
:1056A0008DF8000094208DF8010080208DF8020014
:1056B0009A208DF803000A490422C86C69460FF04D
:1056C00029FA00BF00BF00BF0020C1E7F67D010836
:1056D00064657620213D2052545F4E554C4C0000AD
:1056E000A4A7002001460020704702460020704712
:1056F0002DE9FE4F0F4690461C46C2463D46A34646
:105700004FF0000921E0002603E0002001A98855A0
:10571000761C082EF9D3D2208DF80400C5F347106B
:105720008DF80500E806000E8DF806004FF4806045
:105730000849009053460822C86C01A90FF0F6F9F9
:105740000AF5806A6D1C09F10109D945DBD32046B1
:10575000BDE8FE8FA4A700202DE9FE4F0F4690461E
:105760001C46C2463D46A3464FF0000921E00026F4
:1057700003E0002001A98855761C082EF9D3D22019
:105780008DF80400C5F3C7108DF805006806000EFB
:105790008DF806004FF480700849009053460822A7
:1057A000C86C01A90FF0C2F90AF5807A6D1C09F1E5
:1057B0000109D945DBD32046BDE8FE8FA4A7002010
:1057C0002DE9FE4F0F4690461C46C2463D46A34675
:1057D0004FF0000921E0002603E0002001A98855D0
:1057E000761C082EF9D3D2208DF80400C5F387105B
:1057F0008DF80500A806000E8DF806004FF4007025
:105800000849009053460822C86C01A90FF08EF990
:105810000AF5007A6D1C09F10109D945DBD3204650
:10582000BDE8FE8FA4A700202DE9FC5F83460E464D
:1058300017461C46B9463546A2464FF000081EE002
:1058400082208DF80400C5F347108DF80500E806A6
:10585000000E8DF8060000208DF807004FF48060E0
:10586000094900904B460422C86C01A90FF0EEF9DB
:1058700009F580696D1C11F055FB08F10108D04550
:10588000DED32046BDE8FC9FA4A700202DE9FC5FE5
:1058900083460E4617461C46B9463546A2464FF08B
:1058A00000081EE082208DF80400C5F3C7108DF8B3
:1058B00005006806000E8DF8060000208DF8070030
:1058C0004FF48070094900904B460422C86C01A92E
:1058D0000FF0BCF909F580796D1C11F023FB08F17C
:1058E0000108D045DED32046BDE8FC9FA4A70020D8
:1058F0002DE9FC5F83460E4617461C46B9463546E1
:10590000A2464FF000081EE082208DF80400C5F387
:1059100087108DF80500A806000E8DF806000020FF
:105920008DF807004FF40070094900904B4604229F
:10593000C86C01A90FF08AF909F500796D1C11F006
:10594000F1FA08F10108D045DED32046BDE8FC9FFE
:10595000A4A700201CB50121084602F0D9F90121B5
:10596000042002F0D5F94FF4C050009001208DF8CA
:10597000040000208DF8060003208DF805000020AB
:105980008DF807006946084801F016F94FF4807059
:1059900000906946054801F00FF94FF4C0510248E4
:1059A00001F09AFA1CBD000000000240000802400D
:1059B00000BFFEE710B50F48006800EB80000E49FD
:1059C00001EB800200210D4800F0B2F9094800689F
:1059D00000EB8000084A02EB800109480DF004FF4B
:1059E00004480068401C03490860402801D1002099
:1059F000086010BD400400205C8900200064004065
:105A0000CC82002010B50421184800F0C5F820B160
:105A10000421164800F032F827E00821134800F06E
:105A2000BBF820B10821114800F028F81DE010480B
:105A3000006800EB80000F4901EB800200210B4859
:105A400000F076F90A48006800EB8000094A02EB92
:105A5000800109480DF0C8FE05480068401C044953
:105A60000860402801D10020086010BD0068004097
:105A7000440400205C8E0020FC82002070B50446A7
:105A80000D464148844202D04048844200D104E09F
:105A900040F23C613E4806F0ABFB012D1CD0042DCA
:105AA0001AD0082D18D0202D16D0402D14D0B5F5C1
:105AB000807F11D0B5F5007F0ED0B5F5806F0BD08B
:105AC000B5F5006F08D0B5F5004F05D0B5F5803FAE
:105AD00002D0B5F5003F00D104E040F23D612C4812
:105AE00006F086FBB5F5007F3AD00FDC202D28D0DC
:105AF00006DC012D1CD0042D1DD0082D40D11DE049
:105B0000402D21D0B5F5807F3AD126E0B5F5004F84
:105B100031D006DCB5F5806F25D0B5F5006F2FD1FB
:105B200024E0B5F5803F12D0B5F5003F28D111E053
:105B30001848A06025E00820E06022E01020E06026
:105B40001FE0082020611CE01020206119E00820DF
:105B5000606016E01020606013E00420606010E0D8
:105B6000042060600DE0042060600AE00020A06175
:105B70000420606005E00020A0610420606000E077
:105B800000BF00BF70BD000000640040006800401E
:105B9000D07F01080101010070B504460D460026C2
:105BA0005F48844202D05F48844200D104E040F262
:105BB000D5515D4806F01CFB012D20D0022D1ED0D2
:105BC000042D1CD0082D1AD0102D18D0202D16D041
:105BD000402D14D0B5F5807F11D0B5F5007F0ED0E3
:105BE000B5F5806F0BD0B5F5006F08D0B5F5004F57
:105BF00005D0B5F5803F02D0B5F5003F00D104E0F7
:105C000040F2D651484806F0F3FA6069284000286F
:105C100071D0B5F5807F5CD010DC082D35D006DC66
:105C2000012D20D0022D24D0042D72D127E0102D7B
:105C300031D0202D35D0402D6BD138E0B5F5004F57
:105C400060D009DCB5F5007F49D0B5F5806F4CD048
:105C5000B5F5006F5DD14FE0B5F5803F2DD0B5F5BE
:105C6000003F56D12FE0A068304900F0FDF806460D
:105C700051E0E068032100F0F7F806464BE0E068E9
:105C8000082100F0F1F8064645E0E068102100F038
:105C9000EBF806463FE02069032100F0E5F80646F0
:105CA00039E02069082100F0DFF8064633E020697A
:105CB000102100F0D9F806462DE06068082100F0B8
:105CC000D3F8064627E06068102100F0CDF80646BC
:105CD00021E0A069012100F0C7F806461BE0A06999
:105CE000022100F0C1F8064615E0A069042100F089
:105CF000BBF806460FE00FE0A069702100F0B4F891
:105D0000064608E06068042100F0AEF8064602E0AE
:105D1000FFE7002600BF00E00026304670BD00000F
:105D20000064004000680040D07F010801010100CC
:105D300070B504460D4616464548844202D0454893
:105D4000844200D104E04FF43C71434806F050FA1D
:105D50000DB1012D00D104E040F2F1213E4806F0E2
:105D600047FA04F5D87000EB0510006800F0040055
:105D70003072307A50B904F5D87000EB0510006825
:105D800040F2FF7101EA5050306009E004F5D8702C
:105D900000EB051000686FF0604101EAD000706010
:105DA00004F5D87000EB0510006800F00200707276
:105DB00004F5D87000EB0510406800F00F00B072D9
:105DC00004F5D87000EB05104068000AF07404F583
:105DD000D87000EB05108068F07204F5D87000EB05
:105DE00005108068010A317304F5D87000EB0510C6
:105DF0008068010C717304F5D87000EB05108068A1
:105E0000000EB07304F5D87000EB0510C068F07395
:105E100004F5D87000EB0510C068010A317404F570
:105E2000D87000EB0510C068010C717404F5D870CF
:105E300000EB0510C068000EB07425B9E06840F0B2
:105E40002000E06003E0206940F02000206170BD88
:105E50000064004000680040D07F01080120014933
:105E600088607047003002400246002002EA0103C9
:105E70000BB1012000E000207047000070B504461F
:105E80000D46344884423AD032481830844236D0E5
:105E900030483030844232D02E48483084422ED0B0
:105EA0002C48603084422AD02A487830844226D058
:105EB00028489030844222D02648A83084421ED000
:105EC000254884421BD024481830844217D02248E9
:105ED0003030844213D02048483084420FD01E48CE
:105EE000603084420BD01C487830844207D01A4876
:105EF0009030844203D01848A830844200D104E096
:105F000040F23441154806F073F905F04050B0F105
:105F1000405F07D005F0405020B11148284008B933
:105F200005B104E040F235410C4806F061F90A4839
:105F3000844202D2074E103E01E0074E103E05F0AB
:105F4000005018B107482840F06002E0054828409A
:105F5000B06070BD106002401064024020800108F3
:105F600082F002C07D0F7D0F70B504460D462C48AF
:105F700084423AD02A481830844236D028483030FB
:105F8000844232D02648483084422ED024486030A3
:105F900084422AD022487830844226D0204890304B
:105FA000844222D01E48A83084421ED01D4884421C
:105FB0001BD01C481830844217D01A483030844215
:105FC00013D01848483084420FD0164860308442BD
:105FD0000BD014487830844207D012489030844265
:105FE00003D01048A830844200D104E040F2E1110F
:105FF0000D4806F0FDF80DB1012D00D104E04FF47D
:10600000F171094806F0F4F825B1206840F001006C
:10601000206003E0206820F00100206070BD0000D7
:1060200010600240106402402080010810B51C4836
:1060300000F040F81B480068001D1B494860002024
:1060400048614FF4806088610020C861086248623E
:1060500088620420C86203200863002048638863C4
:106060004FF0006008604020C86010488860012040
:1060700008610B4800F012F90948303800F01AF8AE
:106080004FF00060084908600020C8600848886038
:106090004FF4007008610248303800F0FFF810BD7E
:1060A000B864024018040020A0810020807E0020F7
:1060B000807F002010B50446724884423AD071486F
:1060C0001830844236D06F483030844232D06D4828
:1060D000483084422ED06B48603084422AD06948D0
:1060E0007830844226D067489030844222D0654878
:1060F000A83084421ED0644884421BD062481830C5
:10610000844217D060483030844213D05E48483013
:1061100084420FD05C48603084420BD05A487830BB
:10612000844207D058489030844203D05648A83063
:10613000844200D103E0C721544806F059F8206892
:1061400020F001002060002020606060A060E0601E
:106150002061212060614B48844204D13D2049499F
:10616000103988608CE047481830844205D14FF4DC
:10617000746044491039886082E04248303084427B
:1061800005D14FF474103F491039886078E03D48DC
:106190004830844205D14FF074603A491039886024
:1061A0006EE038486030844204D1394835491039AE
:1061B000C86065E033487830844204D135483149BD
:1061C0001039C8605CE02F489030844204D13248D6
:1061D0002C491039C86053E02A48A830844205D1C0
:1061E0004FF03D5027491039C86049E026488442A5
:1061F00004D13D2024490839086041E02248183084
:10620000844205D14FF474601F490839086037E0B3
:106210001D483030844205D14FF474101A490839B2
:1062200008602DE018484830844205D14FF0746072
:1062300015490839086023E013486030844204D1CE
:1062400013481149091F08601AE00F48783084424A
:1062500004D110480C49091F086011E00A48903029
:10626000844204D10C480849091F086008E0064828
:10627000A830844204D14FF03D500349091F086003
:1062800010BD000010600240106402402080010830
:106290003D000020400F002000003D2070B5054665
:1062A0000C460026A24885423AD0A14818308542C3
:1062B00036D09F483030854232D09D4848308542A4
:1062C0002ED09B48603085422AD09948783085424C
:1062D00026D097489030854222D09548A8308542F4
:1062E0001ED0944885421BD092481830854217D062
:1062F00090483030854213D08E48483085420FD0C8
:106300008C48603085420BD08A487830854207D06F
:1063100088489030854203D08648A830854200D115
:1063200004E04FF4A271844805F062FF2068D8B100
:106330002068B0F1007F17D02068B0F1806F13D0D3
:106340002068B0F1C06F0FD02068B0F1006F0BD0A3
:106350002068B0F1206F07D02068B0F1406F03D003
:106360002068B0F1606F00D104E040F2451172483E
:1063700005F03EFFE06828B1E068402802D0E06800
:10638000802800D104E04FF4A3716B4805F030FF82
:10639000206920B12069B0F5803F00D204E040F2CE
:1063A0004711654805F024FF6069B0F5007F01D012
:1063B000606900B904E04FF4A4715F4805F018FF6C
:1063C000A069B0F5806F01D0A06900B904E040F287
:1063D0004911594805F00CFFE06938B1E069B0F5A2
:1063E000006F03D0E069B0F5805F00D104E04FF4A6
:1063F000A571514805F0FCFE206A38B1206AB0F55D
:10640000005F03D0206AB0F5804F00D104E040F275
:106410004B11494805F0ECFE606A18B1606AB0F5AE
:10642000807F00D104E04FF4A671434805F0E0FE00
:10643000A06A58B1A06AB0F5803F07D0A06AB0F555
:10644000003F03D0A06AB0F5403F00D104E040F225
:106450004D11394805F0CCFEE06A10B1E06A04281D
:1064600000D104E04FF4A771334805F0C1FE206B62
:1064700040B1206B012805D0206B022802D0206B90
:10648000032800D104E040F24F112B4805F0B0FE84
:10649000606B58B1606BB0F5000F07D0606BB0F166
:1064A000807F03D0606BB0F1C07F00D104E04FF477
:1064B000A871214805F09CFEA06B58B1A06BB0F507
:1064C000001F07D0A06BB0F5800F03D0A06BB0F514
:1064D000C00F00D104E040F25111174805F088FECA
:1064E0002E6816480640E168206808436169084341
:1064F000A1690843E1690843216A0843616A0843C6
:10650000A16A0843616B0843A16B084306432E60F0
:106510006E6926F00706D4E90B01084306436E6155
:10652000206968606068A860A068E86070BD0000CD
:106530001060024010640240208001083F801CF07F
:1065400010B5044640F2F31024EA000008B904B183
:1065500004E04FF4BE61034805F04AFE02480460BF
:1065600010BD0000708001080C3C02402DE9F04194
:1065700004460D46002709266CB3082C2BD0102C9E
:1065800029D0182C27D0202C25D0282C23D0302CF3
:1065900021D0382C1FD0402C1DD0482C1BD0502C83
:1065A00019D0582C17D0802C15D0882C13D0902CB3
:1065B00011D0982C0FD0A02C0DD0A82C0BD0B02C23
:1065C00009D0B82C07D0C02C05D0C82C03D0D02CB3
:1065D00001D0D82C00D104E04FF4EF71264805F02B
:1065E00007FE2DB1012D03D0022D01D0032D00D1C6
:1065F00004E040F2DF11204805F0FAFD0DB9002754
:1066000009E0012D01D12F0205E0022D01D12F0259
:1066100001E04FF4407700F0AFF80646092E28D18C
:106620001648006820F44070144908600846006865
:10663000384308600846006820F0F8000860084603
:10664000006844F0020108430C49086008460068ED
:1066500040F48030086000F08FF806460748006874
:1066600020F00200054908600846006820F0F800A4
:1066700008603046BDE8F08170800108103C02409F
:1066800009201349096801F48031B1F5803F01D137
:1066900001201CE00E49096801F0100109B1062033
:1066A00015E00B49096801F4807109B102200EE080
:1066B0000749096801F0E00109B1072007E0044932
:1066C000096801F0020109B1082000E009207047C3
:1066D0000C3C024070B504460D460926B4F1006F2B
:1066E00002D3B4F1016F05D31648844203D3164890
:1066F000844200D804E040F21931144805F078FDD6
:1067000000F03AF80646092E19D11148006820F425
:1067100040700F4908600846006840F40070086047
:106720000846006840F001000860256000F024F889
:1067300006460748006820F0010005490860304619
:1067400070BD00000078FF1F0F7AFF1F70800108E6
:10675000103C02400548006800F0004028B10448A1
:1067600002490C390860034808607047103C024039
:1067700023016745AB89EFCD08B509200090FFF7ED
:106780007FFF009002E0FFF77BFF00909DF8000084
:106790000128F8D09DF8000008BD000070B504463F
:1067A0000D462CB1022C03D0042C01D0062C00D1B4
:1067B00004E04FF49771114805F01AFD0DB1012D59
:1067C00000D104E040F22F110C4805F011FD55B145
:1067D000A000A0F1C040006840F00101A000A0F1BD
:1067E000C040016009E0A000A0F1C0400068044979
:1067F0000840A100A1F1C041086070BDC08001083F
:10680000FEFF0F002DE9F041044600250026002779
:10681000206840B12068022805D02068042802D0F2
:106820002068062800D103E0A121CF4805F0E0FC54
:10683000606810B16068022800D103E0A221CA4854
:1068400005F0D6FCA06828B1A068042802D0A06892
:10685000082800D103E0A321C34805F0C9FCE06883
:1068600010B1E068102800D103E0A421BE4805F073
:10687000BFFC206918B12069B0F5807F00D103E02A
:10688000A521B94805F0B4FC606918B16069B0F59C
:10689000004F00D103E0A621B34805F0A9FCA06990
:1068A00018B1A069B0F5007F00D103E0A721AE4880
:1068B00005F09EFCE06918B1E069B0F5806F00D189
:1068C00003E0A821A84805F093FC206A18B1206ACB
:1068D000B0F5006F00D103E0A921A34805F088FCC2
:1068E000606A18B1606AB0F5805F00D103E0AA2148
:1068F0009D4805F07DFCA06A18B1A06AB0F5005F64
:1069000000D103E0AB21984805F072FCE06A18B1B1
:10691000E06AB0F5804F00D103E0AC21924805F069
:1069200067FC206B18B1206BB0F5002F00D103E09D
:10693000AD218D4805F05CFC606B00680F2800D825
:1069400003E0AE21884805F053FC606B40680F28D7
:1069500000D803E0AF21844805F04AFC606B8068F2
:1069600020B1606B8068FF2800D803E0B0217E482A
:1069700005F03EFC606BC0680F2800D803E0B12131
:10698000794805F035FC606B00690F2800D803E0FA
:10699000B221754805F02CFC606B40690F2800D8C7
:1069A00003E0B321704805F023FC606B806970B18F
:1069B000606B8069B0F1805F09D0606B8069B0F175
:1069C000005F04D0606B8069B0F1405F00D103E0EC
:1069D000B421654805F00CFC20688000A0F1C0409F
:1069E000056862480540D4E901010843E1680843AD
:1069F0002169084361690843A1690843E1690843C3
:106A0000216A0843616A0843A16A0843E16A0843AE
:106A1000216B0843054320688000A0F1C040056059
:106A2000A06808280BD120688000A0F1C040006851
:106A300040F0400120688000A0F1C0400160206863
:106A4000401C8000A0F1C040066806F04046606B24
:106A50000068616B496840EA0110616B896840EA2F
:106A60000120616B898940EA0140616B098A40EA33
:106A70000150616B097D40EA0160616B89690843DF
:106A800006432068401C8000A0F1C0400660E06A18
:106A9000B0F5804F5ED1A06B00680F2800D803E0EE
:106AA000EC21314805F0A4FBA06B40680F2800D80A
:106AB00003E0ED212C4805F09BFBA06B806820B122
:106AC000A06B8068FF2800D803E0EE21264805F07F
:106AD0008FFBA06BC0680F2800D803E0EF2122488D
:106AE00005F086FBA06B806970B1A06B8069B0F186
:106AF000805F09D0A06B8069B0F1005F04D0A06B0B
:106B00008069B0F1405F00D103E0F021164805F044
:106B10006FFB20688000A0F1C040D0F804711448D9
:106B20000740A06B0068A16B496840EA0110A16BA7
:106B3000896840EA0120A16B898940EA0140A16B84
:106B400089690843074320688000A0F1C040C0F86D
:106B5000047107E06FF0704120688000A0F1C04030
:106B6000C0F80411BDE8F081C08001088000F7FF83
:106B70000000F0CF1CB502208DF8040000208DF835
:106B8000060001208DF8070000208DF805004FF465
:106B9000C06000906946074800F00EF807220921FE
:106BA000044800F0D1F807220A21024800F0CCF88E
:106BB0001CBD0000000002402DE9F04104460D46D6
:106BC00000260027B046544884421DD053488442D2
:106BD0001AD05348844217D05248844214D05248A5
:106BE000844211D0514884420ED0514884420BD087
:106BF0005048844208D05048844205D04F488442CF
:106C000002D04F48844200D103E0CF214D4805F027
:106C1000EFFA288880B200B103E0D021494805F09E
:106C2000E7FA287940B12879012805D02879022887
:106C300002D02879032800D103E0D121414805F092
:106C4000D7FAE87928B1E879012802D0E879022852
:106C500000D103E0D2213B4805F0CAFA002657E0F4
:106C6000012000FA06F7286800EA0708B8454ED167
:106C700020687200032191408843206028797100C8
:106C800088402168084320602879012802D02879AB
:106C9000022830D1687940B16879012805D0687937
:106CA000022802D06879032800D103E0E4212548B6
:106CB00005F09EFAA0687200032191408843A0600D
:106CC000687971008840A1680843A060A87910B174
:106CD000A879012800D103E0EB211A4805F088FAD1
:106CE00061680120B040814361606168A879B0406B
:106CF00080B201436160E0687200032191408843E3
:106D0000E060E87971008840E1680843E060761C43
:106D1000102EA5D3BDE8F08100000240000402401F
:106D200000080240000C0240001002400014024023
:106D300000180240001C02400020024000240240D3
:106D400000280240108101082DE9F04106460D4659
:106D500014460027B846544886421DD05348864200
:106D60001AD05348864217D05248864214D052480F
:106D7000864211D0514886420ED0514886420BD0EF
:106D80005048864208D05048864205D04F48864237
:106D900002D04F48864200D104E040F249214D48DC
:106DA00005F026FAEDB1012D1BD0022D19D0032DCF
:106DB00017D0042D15D0052D13D0062D11D0072D79
:106DC0000FD0082D0DD0092D0BD00A2D09D00B2D79
:106DD00007D00C2D05D00D2D03D00E2D01D00F2D79
:106DE00000D104E040F24A213A4805F001FAA4B388
:106DF000092C32D08CB384B37CB374B3012C2CD067
:106E00002BD0022C29D028D027D0032C25D0042C1D
:106E100023D022D021D0052C1FD01ED0092C1CD06D
:106E2000062C1AD0092C18D0072C16D015D014D047
:106E3000082C12D011D010D0092C0ED00DD00A2C55
:106E40000BD00AD00B2C08D00C2C06D005D00D2C62
:106E500003D00F2C01D00C2C00D104E040F24B21C8
:106E60001C4805F0C5F96807C00E04FA00F7E910E0
:106E700006F1200050F821006907CA0E0F21914049
:106E80008843EA1006F1200141F82200E91006F1DA
:106E9000200050F8210040EA0708E91006F1200020
:106EA00040F82180BDE8F08100000240000402406B
:106EB00000080240000C0240001002400014024092
:106EC00000180240001C0240002002400024024042
:106ED000002802401081010870B504460D4618488C
:106EE00084421DD0174884421AD01748844217D0D4
:106EF0001648844214D01648844211D01548844262
:106F00000ED0154884420BD01448844208D014484F
:106F1000844205D01348844202D01348844200D1F1
:106F200004E040F29F11114805F062F9A8B200B1E7
:106F300004E04FF4D0710D4805F05AF9258370BD77
:106F4000000002400004024000080240000C024021
:106F5000001002400014024000180240001C0240D1
:106F60000020024000240240002802401081010855
:106F700000BFFEE7704710B54FF48041480300F0B2
:106F800093F84FF4A06000F06DF810BD38B50446DA
:106F900020798DF8000003208DF8010000208DF885
:106FA000020001208DF80300684600F001F838BDAA
:106FB0002DE9F0410446002500270F26E07810B1A6
:106FC000E078012800D103E08D21224805F010F976
:106FD0006078102800DA03E08E211E4805F008F9D9
:106FE000A078102800DA03E08F211A4805F000F994
:106FF000E07818B31848006800F4E060C0F5E0607D
:10700000C0F30725C5F10400C7B22E416078B8402F
:10701000C5B2A078304005432807050E0F482178F7
:107020004554207800F01F01012088402178491143
:10703000890001F1E021C1F8000109E0207800F0A9
:107040001F010120884006492278521141F8220090
:10705000BDE8F0813C7F01080CED00E000E400E0B9
:1070600080E100E010B50446B4F5E06F0BD0B4F554
:10707000C06F08D0B4F5A06F05D0B4F5806F02D012
:10708000B4F5407F00D103E07921044805F0B0F861
:10709000034820430349086010BD00003C7F0108FD
:1070A0000000FA050CED00E070B504460D46B4F1A1
:1070B000005F02D0B4F1006F00D103E0B7210948AE
:1070C00005F096F80848854200D203E0B82105484B
:1070D00005F08EF8054905EA0100204304490860DF
:1070E00070BD00003C7F0108FFFF0F0080FFFF1F05
:1070F00008ED00E000BF0A48006810F8080C0849D5
:10710000096811F8041C08440549096801F8080CCD
:1071100003480068001F0249086000BF7047000074
:107120005008002000BF0A48006850F8080C0849C1
:10713000096851F8041C08440549096841F8080C1D
:1071400003480068001F0249086000BF7047000044
:107150005008002000BF0A48006830F8080C0849B1
:10716000096831F8041C084400B20549096821F88F
:10717000080C03480068001F0149086000BF704701
:107180005008002000BF0A48006810F8080C0849A1
:10719000096811F8041C08400549096801F8080C41
:1071A00003480068001F0249086000BF70470000E4
:1071B0005008002000BF0A48006850F8080C084931
:1071C000096851F8041C08400549096841F8080C91
:1071D00003480068001F0249086000BF70470000B4
:1071E0005008002000BF0A48006830F9080C084920
:1071F000096831F9041C08400549096821F8080CA0
:1072000003480068001F0249086000BF7047000083
:10721000500800200448006810F8040CC0430249DC
:10722000096801F8040C7047500800200448006801
:1072300050F8040CC0430249096841F8040C704737
:10724000500800200448006830F9040CC04302498B
:10725000096821F8040C70475008002010B5A4B04C
:10726000DF48006800781390DD480068401CDC4966
:10727000086000201290DB480068001FD9490860B0
:1072800011E0D848006802681398401E1299401A0D
:1072900014A941F82020D3480068001FD149086094
:1072A0001298401C1290DDE912018842E9D3CD48C2
:1072B000006800681190139811286ED2DFE800F082
:1072C000090E141D293747596E849CB6D2F4F2F189
:1072D000F000002011998847109074E114980F90E5
:1072E0001199884710906EE115980F9014980E90A0
:1072F000119A0F999047109065E116980F90159884
:107300000E9014980D90119BDDE90E129847109085
:1073100059E117980F9016980E9015980D901498A3
:107320000C90119C0DA90EC9A04710904BE1189824
:10733000009017980F9016980E9015980D9014982D
:107340000C90119C0DA90EC9A04710903BE1DDE9FE
:107350001801CDE9000117980F9016980E90159816
:107360000D9014980C90119C0DA90EC9A047109077
:1073700029E1DDE919211898CDE90121009017983C
:107380000F9016980E9015980D9014980C90119CD3
:107390000DA90EC9A047109015E111E1DDE91932E0
:1073A00018991B98CDE901320091039017980F901E
:1073B00016980E9015980D9014980C90119C0DA98C
:1073C0000EC9A0471090FEE0DDE91923DDE91B108E
:1073D000CDE90123CDE903101898009017980F907C
:1073E00016980E9015980D9014980C90119C0DA95C
:1073F0000EC9A0471090E6E0DDE91A23DDE91C1074
:10740000CDE90223CDE90410DDE91801CDE9000141
:1074100017980F9016980E9015980D9014980C9040
:10742000119C0DA90EC9A0471090CCE0DDE91C32DB
:107430001B991E98CDE9043203910690DDE91921CC
:107440001898CDE90121009017980F9016980E908A
:1074500015980D9014980C90119C0DA90EC9A04779
:107460001090B0E0DDE91C23DDE91E10CDE9042316
:10747000CDE90610DDE9193218991B98CDE90132E2
:107480000091039017980F9016980E9015980D90F4
:1074900014980C90119C0DA90EC9A047109092E071
:1074A00068E043E020E0FFE7DDE91E321D99209807
:1074B000CDE9063205910890DDE91923DDE91B01CC
:1074C000CDE90123CDE903011898009017980F909A
:1074D00016980E9015980D9014980C90119C0DA96B
:1074E0000EC9A04710906EE0DDE91E13DDE9200211
:1074F000CDE90613CDE90802DDE91A23DDE91C0117
:10750000CDE90223CDE90401DDE91801CDE900014F
:1075100017980F9016980E9015980D9014980C903F
:10752000119C0DA90EC9A04710904CE0DDE9203157
:10753000229A1F98CDE908310A920790DDE91B23B2
:10754000DDE91D01CDE90323CDE90501DDE91921BF
:107550001898CDE90121009017980F9016980E9079
:1075600015980D9014980C90119C0DA90EC9A04768
:10757000109028E0DDE9213220992398CDE90932E5
:1075800008910B90DDE91D321C991F98CDE9053259
:1075900004910790DDE91823DDE91A10CDE90023F5
:1075A000CDE9021017980F9016980E9015980D902F
:1075B00014980C90119C0DA90EC9A047109002E0E0
:1075C0000020109000BF00BF0649109809680860AD
:1075D00004480068001D0349086024B010BD000085
:1075E000540800205008002000BF0A48006810F826
:1075F000080C0849096811F8041C90FBF1F00549D2
:10760000096801F8080C03480068001F0149086078
:1076100000BF70475008002000BF0A48006850F8BB
:10762000080C0849096851F8041C90FBF1F0054961
:10763000096841F8080C03480068001F0149086008
:1076400000BF70475008002000BF0B48006830F9A9
:10765000080C0949096831F9041C90FBF1F000B2EB
:107660000549096821F8080C03480068001F024911
:10767000086000BF704700005008002008480068FC
:10768000007808490968087006480068001D054927
:10769000086003480068401C01490860704700000A
:1076A00054080020500800200F48006800780E4958
:1076B0000968497840EA01200B490968897840EA5D
:1076C000014009490968C97840EA01600749096829
:1076D000086006480068001D044908600248006808
:1076E000001D014908607047540800205008002020
:1076F0001049096809780F4A1268527841EA022154
:107700000C4A1268927841EA02410A4A1268D27819
:1077100041EA02600178084A126811700649096856
:10772000091D054A116003490968091D014A1160D4
:1077300070470000540800205008002004490968E0
:1077400051F8040C0178024A126802F8041C7047D0
:10775000500800201049096809780F4A12685278C9
:1077600041EA02210C4A1268927841EA02410A4A2F
:107770001268D27841EA0260084A01681268116012
:1077800006490968091D054A116003490968091D70
:10779000014A116070470000540800205008002082
:1077A0000449096851F8040C024A0168126842F859
:1077B000041C7047500800201049096809780F4AD6
:1077C0001268527841EA02210C4A1268927841EA22
:1077D00002410A4A1268D27841EA02600188084AE6
:1077E0001268118006490968091D054A116003499C
:1077F0000968091D014A1160704700005408002003
:10780000500800200449096851F8040C0188024A14
:10781000126822F8041C7047500800200B480068CA
:1078200000780A490968497840EA012000B208490D
:107830000968088006480068001D0549086003487B
:107840000068801C0149086070470000540800204F
:107850005008002000BF0B48006810F8080C0949C8
:10786000096811F8041C90FBF1F201FB12000549B4
:10787000096801F8080C03480068001F0149086006
:1078800000BF70475008002000BF0B48006850F848
:10789000080C0949096851F8041C90FBF1F201FB3E
:1078A00012000549096841F8080C03480068001FE8
:1078B0000149086000BF70475008002000BF0B4816
:1078C000006830F9080C0949096831F9041C90FB7B
:1078D000F1F201FB12000549096821F8080C034880
:1078E0000068001F0149086000BF70475008002071
:1078F00000BF0A48006810F8080C0849096811F828
:10790000041C10FB01F00549096801F8080C034844
:107910000068001F0149086000BF70475008002040
:1079200000BF0A48006850F8080C0849096851F877
:10793000041C48430549096841F8080C03480068DD
:10794000001F0249086000BF704700005008002077
:1079500000BF0B48006830F8080C0949096831F885
:10796000041C10FB01F000B20549096821F8080C5D
:1079700003480068001F0249086000BF704700000C
:10798000500800207047000000BF0A48006810F847
:10799000080C0849096811F8041C084305490968DE
:1079A00001F8080C03480068001F0249086000BF86
:1079B000704700005008002000BF0A48006850F8D7
:1079C000080C0849096851F8041C0843054909686E
:1079D00041F8080C03480068001F0249086000BF16
:1079E000704700005008002000BF0A48006830F9C6
:1079F000080C0849096831F9041C0843054909685D
:107A000021F8080C03480068001F0249086000BF05
:107A1000704700005008002002480068001F01491C
:107A2000086070475008002000BF0A48006810F83E
:107A3000080C0849096811F8041C884005490968C0
:107A400001F8080C03480068001F0249086000BFE5
:107A5000704700005008002000BF0A48006850F836
:107A6000080C0849096811F8041C88400549096890
:107A700041F8080C03480068001F0249086000BF75
:107A8000704700005008002000BF0A48006830F826
:107A9000080C0849096811F8041C884000B205491F
:107AA000096821F8080C03480068001F01490860B4
:107AB00000BF70475008002000BF0A48006810F857
:107AC000080C0849096811F8041C084105490968AF
:107AD00001F8080C03480068001F0249086000BF55
:107AE000704700005008002000BF0A48006850F8A6
:107AF000080C0849096811F8041C0841054909687F
:107B000041F8080C03480068001F0249086000BFE4
:107B1000704700005008002000BF0A48006830F994
:107B2000080C0849096811F8041C0841054909684E
:107B300021F8080C03480068001F0249086000BFD4
:107B400070470000500800200748006810F8040C37
:107B50000549096851F8081C087003480068001FAF
:107B6000014908607047000050080020074800687D
:107B700050F8040C0549096851F8081C08600348CE
:107B80000068001F0149086070470000500800208D
:107B90000748006830F8040C0549096851F8081CCA
:107BA000088003480068001F014908607047000012
:107BB0005008002000BF0A48006810F8080C084967
:107BC000096811F8041C401A0549096801F8080CF5
:107BD00003480068001F0249086000BF70470000AA
:107BE0005008002000BF0A48006850F8080C0849F7
:107BF000096851F8041C401A0549096841F8080C45
:107C000003480068001F0249086000BF7047000079
:107C10005008002000BF0A48006830F8080C0849E6
:107C2000096831F8041C401A00B20549096821F8B6
:107C3000080C03480068001F0149086000BF704736
:107C40005008002000BF0A48006810F8080C0849D6
:107C5000096811F8041C48400549096801F8080C36
:107C600003480068001F0249086000BF7047000019
:107C70005008002000BF0A48006850F8080C084966
:107C8000096851F8041C48400549096841F8080C86
:107C900003480068001F0249086000BF70470000E9
:107CA0005008002000BF0A48006830F9080C084955
:107CB000096831F9041C48400549096821F8080C95
:107CC00003480068001F0249086000BF70470000B9
:107CD0005008002001460A4801600120094A10703E
:107CE0000020094A1080064A126852691070044A3E
:107CF000126812691070FF20044A1070002070474B
:107D00009808002090080020A00800208808002083
:107D100070B504460D461048204008B904B104E08F
:107D200040F29D710D4804F063FA0DB1012D00D1B0
:107D300004E040F29F71094804F05AFA2DB1084856
:107D4000006820430649086004E005480068A04335
:107D50000349086070BD000000E80B016081010864
:107D60003038024070B504460D4624F0010008B9D1
:107D700004B104E040F2DB710C4804F039FA0DB1B3
:107D8000012D00D104E040F2DC71084804F030FA23
:107D90002DB10748006820430549086004E0044805
:107DA0000068A0430249086070BD000060810108BE
:107DB0003838024070B504460D4604F4585008B9EE
:107DC00004B104E040F614010C4804F011FA0DB1BE
:107DD000012D00D104E040F61501084804F008FA2E
:107DE0002DB10748006820430549086004E00448B5
:107DF0000068A0430249086070BD0000608101086E
:107E00004038024070B504460D4604F4585008B995
:107E100004B104E040F6DD010C4804F0E9F90DB1CD
:107E2000012D00D104E040F6DE01084804F0E0F93D
:107E30002DB10748006820430549086004E0044864
:107E40000068A0430249086070BD0000608101081D
:107E50002038024070B504460D461048204008B94D
:107E600004B104E040F644010D4804F0C1F90DB13D
:107E7000012D00D104E040F64501094804F0B8F9AD
:107E80002DB10848006820430649086004E0054811
:107E90000068A0430349086070BD0000CC8008F270
:107EA000608101084438024070B504460D46104810
:107EB000204008B904B104E040F608110D4804F070
:107EC00097F90DB1012D00D104E040F609110948E0
:107ED00004F08EF92DB10848006820430649086077
:107EE00004E005480068A0430349086070BD000035
:107EF000CC8608F2608101082438024010B50121C7
:107F00000846FFF705FF01211020FFF7A3FF10BD72
:107F1000F0B5002100220024022500260223324F62
:107F20003F6807F00C0121B1042905D0082937D199
:107F300005E02E4F076036E02D4F076033E02A4FF3
:107F40003F1F3F68C7F38056274F3F1F3F6807F02A
:107F50003F036EB1264FB7FBF3F7DFF88CC0ACF1EF
:107F6000040CDCF800C0CCF3881C07FB0CF40CE01C
:107F70001E4FB7FBF3F7DFF870C0ACF1040CDCF870
:107F800000C0CCF3881C07FB0CF4174F3F1F3F6861
:107F9000C7F301477F1C7D00B4FBF5F7076002E0E3
:107FA000124F076000BF00BF0F4F3F6807F0F0019E
:107FB0000909104F7A5C0768D74047600A4F3F684D
:107FC00007F4E051890A0B4F7A5C4768D740876015
:107FD000054F3F6807F46041490B064F7A5C4768DC
:107FE000D740C760F0BD0000083802400024F4000C
:107FF00040787D014C040020704700000CB5002043
:10800000019000903448006840F4803032490860A4
:1080100000BF3148006800F4003000900198401C17
:108020000190009818B90198B0F5A04FF1D12A48F5
:10803000006800F4003010B10120009001E0002041
:1080400000900098012846D123484030006840F055
:1080500080502149403108602048006840F4404089
:108060001E4908601C48083000681B490831086038
:108070000846006840F4004008600846006840F484
:10808000A05008601648091F0860081F006840F0EB
:108090008070091F086000BF0F48006800F0007082
:1080A0000028F9D040F205600E4908600A480830FF
:1080B000006820F00300084908310860084600689D
:1080C00040F00200086000BF03480830006800F07C
:1080D0000C000828F8D10CBD0038024000700040A8
:1080E00019544007003C024010B50446042C01D04E
:1080F000601D00B903E0E2210B4804F079F8042C7C
:1081000008D14FF0E020006940F004004FF0E0217A
:10811000086107E04FF0E020006920F004004FF014
:10812000E021086110BD00003C7F01087FB5684672
:10813000FFF7EEFE4FF47A710198B0FBF1F4E4081A
:108140002146481EB0F1807F00D31BE0481E4FF04F
:10815000E022506150170F22002807DA13071E0E85
:108160000B4B00F00F052D1F5E5503E013071D0E8E
:10817000084B1D5400BF00204FF0E0229061072003
:10818000106100BF6FF00400FFF7AEFF7FBD00007D
:1081900018ED00E000E400E010B50AF077FF0DF004
:1081A000C9FA0AF08BFF10BD10B51548006840F4FD
:1081B0007000134908601348006840F0010011493D
:1081C000086000200F49083108600E4800680E4919
:1081D00008400C4908600D48091D0860081F006828
:1081E00020F48020091F0860002006490C31086037
:1081F000FFF704FF4FF0006001498039086010BDAF
:1082000088ED00E000380240FFFFF6FE1030002449
:1082100010B580200EF044F907490860012178204C
:10822000FFF776FD01210846FFF79CFD07F0A8F94E
:1082300007F03AF9012010BD3004002000B5A1B0CC
:1082400018211BA8FCF73DFB3C210CA8FCF739FBCF
:10825000002009900A900B90142104A8FCF731FB30
:10826000002000900190029003901C200EF018F95D
:10827000A0490860FCF7CCFF01214FF4A060FFF794
:10828000E9FD01218805FFF743FD01210220FFF7E9
:10829000E1FD00219848FCF77DFE00219748FCF79E
:1082A00079FE09A800F090FE4FF4FA700A900020C1
:1082B000ADF82400ADF82C00ADF8260009A99048CF
:1082C00000F0DAFD0122A7218D4800F027FD602093
:1082D000ADF810000120ADF81200642006900220D5
:1082E000ADF81C0004A9864800F0E2FB0821844890
:1082F00000F0BEFC8348FDF7DDFE00200C907E48B8
:108300004C300D9080480E9000200F903C20109033
:10831000002011904FF48060129040001390800074
:1083200014904011159040021690002017900120E3
:108330001890002019901A900CA97248FDF7AEFF12
:1083400070481830FDF7B6FE4FF080600C906B4817
:108350004C300D906D480E9000200F903C201090F6
:10836000002011904FF48060129040001390800024
:108370001490401115904002169000201790012093
:108380001890002019901A900CA95E481830FDF73B
:1083900085FF002000904FF4803001900020029073
:1083A00003906846FCF724FE00201B9001208DF806
:1083B000700000208DF871004FF000501D904FF0BC
:1083C00050601E9000201F9006208DF880001BA991
:1083D0004948FCF74FFF0723012204214648FDF7D7
:1083E0001FF80723022205214348FDF719F8072348
:1083F000032206214048FDF713F8072304221946FB
:108400003D48FDF70DF80723052208213A48FDF7FE
:1084100007F80723062209213748FDF701F8002055
:108420001B9001208DF8700000208DF871004FF036
:1084300000501D904FF050601E9000201F900620AD
:108440008DF880001BA92D48FCF714FF072301229B
:1084500011462A48FCF7E4FF072302221146274869
:10846000FCF7DEFF0723032211462448FCF7D8FF60
:10847000072304220A212148FCF7D2FF0723052203
:108480000B211E48FCF7CCFF072306220C211B48BA
:10849000FCF7C6FF01211848FCF78CFE01211748A4
:1084A000FCF788FE01211748FDF75EFD0121124807
:1084B000FCF752FE01211048FCF76CFD0121114828
:1084C0001830FDF751FD01210C48FCF745FE012154
:1084D0000A48FCF75FFD0121094800F03DF8012141
:1084E000074800F0EFF80121054800F04FF900209F
:1084F00021B000BD380400200020014000220140CE
:108500000004014010640240DC81002054820020FD
:1085100010B50AF0BBFD0C480068C0F500700B49AF
:10852000086009F019FF0A48407A10B108480BF0BA
:10853000F7FE0021074800F0C5F80121054800F0CA
:108540006FF80AF0BBFD10BD8C64024020040020CF
:10855000808100200014004070B504460D4622487A
:10856000844226D0B4F1804F23D02048844220D0CA
:108570001F4884421DD01F4884421AD01E4884429E
:1085800017D01E48844214D01D48844211D01D4883
:1085900084420ED01C4884420BD01C48844208D030
:1085A0001B48844205D01B48844202D01A488442AA
:1085B00000D104E040F20D21184803F019FE0DB17E
:1085C000012D00D104E040F20E21144803F010FE0A
:1085D00025B1208840F08000208004E020884FF6FC
:1085E0007F710840208070BD000001400004004001
:1085F00000080040000C0040001000400014004043
:108600000004014000400140004401400048014096
:1086100000180040001C004000200040B08101080C
:1086200070B504460D461948844226D0B4F1804FF7
:1086300023D01748844220D0164884421DD01648C3
:1086400084421AD01548844217D01548844214D069
:108650001448844211D0144884420ED013488442F6
:108660000BD01348844208D01248844205D01248E7
:10867000844202D01148844200D104E040F6B8118F
:108680000F4803F0B5FDE843208270BD00000140B3
:108690000004004000080040000C004000100040B2
:1086A000001400400004014000400140004401402B
:1086B0000048014000180040001C0040002000401D
:1086C000B081010870B504460D462248844226D088
:1086D000B4F1804F23D02048844220D01F488442E8
:1086E0001DD01F4884421AD01E48844217D01E480D
:1086F000844214D01D48844211D01D4884420ED0BB
:108700001C4884420BD01C48844208D01B48844239
:1087100005D01B48844202D01A48844200D104E0AC
:1087200040F25321184803F063FD0DB1012D00D133
:1087300004E04FF41571144803F05AFD25B1208868
:1087400040F00100208004E020884FF6FE710840D0
:10875000208070BD0000014000040040000800407F
:10876000000C0040001000400014004000040140D4
:108770000040014000440140004801400018004012
:10878000001C004000200040B081010870B5044684
:108790000D461248844202D01148844200D104E0C0
:1087A00040F6DC010F4803F023FD0DB1012D00D18F
:1087B00004E040F6DD010B4803F01AFD35B1B4F8D2
:1087C000440040F40040A4F8440005E0B4F844003C
:1087D000C0F30E00A4F8440070BD0000000001408A
:1087E00000040140B081010810B504466C48844281
:1087F00026D0B4F1804F23D06A48844220D06A4802
:1088000084421DD0694884421AD06948844217D0F6
:108810006848844214D06848844211D06748844232
:108820000ED0674884420BD06648844208D0664820
:10883000844205D06548844202D06548844200D114
:1088400003E0CB21634803F0D3FC5548844208D1B0
:1088500001210846FFF728FB00210120FFF724FB38
:108860009DE0B4F1804F08D101210846FFF7CAFA14
:1088700000210120FFF7C6FA91E04A48844208D15E
:1088800001210220FFF7BEFA00210220FFF7BAFA09
:1088900085E04548844208D101210420FFF7B2FA5F
:1088A00000210420FFF7AEFA79E04048844208D165
:1088B00001210820FFF7A6FA00210820FFF7A2FAFD
:1088C0006DE03B48844208D101211020FFF79AFA5D
:1088D00000211020FFF796FA61E03648844208D163
:1088E00001212020FFF78EFA00212020FFF78AFACD
:1088F00055E03148844208D101210220FFF7D4FA23
:1089000000210220FFF7D0FA49E02C48844209D127
:1089100001210804FFF7C8FA00214FF48030FFF767
:10892000C3FA3CE02648844209D101214804FFF7FC
:10893000BBFA00214FF40030FFF7B6FA2FE02148D0
:10894000844209D101218804FFF7AEFA00214FF4D7
:108950008020FFF7A9FA22E01B48844208D10121B8
:108960004020FFF74FFA00214020FFF74BFA16E0B6
:108970001648844208D101218020FFF743FA0021E4
:108980008020FFF73FFA0AE01148844207D1012115
:108990008015FFF737FA0021A015FFF733FA10BD55
:1089A000000001400004004000080040000C0040AE
:1089B000001000400014004000040140004001404D
:1089C000004401400048014000180040001C0040E5
:1089D00000200040B081010870B504460D461646DF
:1089E0002548844226D0B4F1804F23D023488442C6
:1089F00020D0234884421DD0224884421AD02248E5
:108A0000844217D02148844214D02148844211D096
:108A1000204884420ED0204884420BD01F48844214
:108A200008D01F48844205D01E48844202D01E4808
:108A3000844200D104E040F647111C4803F0D8FB03
:108A400005F47F4008B905B104E040F64811174825
:108A500003F0CEFB0EB1012E00D104E040F6491127
:108A6000124803F0C5FB1EB1A0892843A08102E093
:108A7000A089A843A08170BD00000140000400400F
:108A800000080040000C00400010004000140040AE
:108A90000004014000400140004401400048014002
:108AA00000180040001C004000200040B081010878
:108AB0002DE9F04105460C464FF00008002600273E
:108AC0005F48854220D0B5F1804F1DD05D4885427A
:108AD0001AD05D48854217D05C48854214D05C4866
:108AE000854211D05B4885420ED05B4885420BD051
:108AF0005A48854208D05A48854205D0594885428F
:108B000002D05948854200D104E040F2A6215748DE
:108B100003F06EFB208870B1208810280BD02088CD
:108B2000202808D02088302805D02088602802D04E
:108B30002088702800D104E040F2A7214B4803F0C0
:108B400057FB608810B16088012800D104E04FF421
:108B50002A71464803F04CFBA08910B1A089022875
:108B600000D104E040F2A921404803F041FB288CE9
:108B70004FF6FE71084028842E8CAF88B5F8188017
:108B80004FF68F7008EA0008881E08EA000820885F
:108B900040EA0808481E0640A0890643608806434C
:108BA0002748854202D02A48854241D1A08810B189
:108BB000A088042800D104E040F2C6212B4803F02D
:108BC00017FBE08910B1E089082800D104E040F2E9
:108BD000C721264803F00CFB608AB0F5007F01D066
:108BE000608A00B904E04FF43271204803F000FBC2
:108BF000208AB0F5807F01D0208A00B904E040F2DD
:108C0000C9211A4803F0F4FA4FF6F7700640E089DC
:108C100006434FF6FB700640A08806434FF6FF6000
:108C200007404FF6FF500740208A0743608A0743FA
:108C3000AF80A5F81880A06868632E84BDE8F08135
:108C4000000001400004004000080040000C00400B
:108C50000004014000400140004401400048014040
:108C600000180040001C004000200040B0810108B6
:108C700070B504460D4600261C48844220D0B4F14D
:108C8000804F1DD01A4884421AD01A48844217D007
:108C90001948844214D01948844211D0184884429B
:108CA0000ED0184884420BD01748844208D0174889
:108CB000844205D01648844202D01648844200D12E
:108CC00004E040F2DB41144803F092FA082D00D092
:108CD00005B904E040F2DC410F4803F089FA268B25
:108CE0004FF6F77006402E43268370BD000001400A
:108CF0000004004000080040000C00400004014057
:108D0000004001400044014000480140001800407C
:108D1000001C004000200040B081010870B50446EE
:108D20000E4615461D48844226D0B4F1804F23D00C
:108D30001B48844220D01B4884421DD01A488442DC
:108D40001AD01A48844217D01948844214D01948BE
:108D5000844211D0184884420ED0184884420BD067
:108D60001748844208D01748844205D016488442E8
:108D700002D01648844200D104E040F26B1114483E
:108D800003F036FA0DB1012D00D104E04FF4B671B5
:108D90000F4803F02DFA2685A58270BD0000014022
:108DA0000004004000080040000C0040001000409B
:108DB0000014004000040140004001400044014014
:108DC0000048014000180040001C00400020004006
:108DD000B081010870B504460D461948844226D07A
:108DE000B4F1804F23D01748844220D016488442E3
:108DF0001DD0164884421AD01548844217D0154811
:108E0000844214D01448844211D0144884420ED0B5
:108E1000134884420BD01348844208D0124884423D
:108E200005D01248844202D01148844200D104E0A7
:108E30004FF4CE710F4803F0DBF9656270BD00009E
:108E4000000001400004004000080040000C004009
:108E500000100040001400400004014000400140A8
:108E6000004401400048014000180040001C004040
:108E700000200040B081010870B504460D46002670
:108E80004348844226D0B4F1804F23D041488442E5
:108E900020D0414884421DD0404884421AD04048E6
:108EA000844217D03F48844214D03F48844211D0B6
:108EB0003E4884420ED03E4884420BD03D48844216
:108EC00008D03D48844205D03C48844202D03C480A
:108ED000844200D104E040F225113A4803F088F9B9
:108EE000688858B16888102808D06888202805D07C
:108EF0006888402802D06888602800D104E04FF4D8
:108F00009371304803F074F9288938B12889B0F595
:108F1000807F03D02889B0F5007F00D104E040F2C3
:108F20002711284803F064F92688194884420ED096
:108F30001D4884420BD0B4F1804F08D015488442BC
:108F400005D01548844202D01448844204D14FF61B
:108F50008F700640688806431148844207D0114844
:108F6000844204D04FF6FF400640288906432680FD
:108F70006868E062288820850548844202D00A4853
:108F8000844201D1A87A20860120A08270BD000011
:108F9000000001400004004000080040000C0040B8
:108FA0000010004000140040000401400040014057
:108FB000004401400048014000180040001C0040EF
:108FC00000200040B08101084FF0FF3141600021D6
:108FD0000180018141808172704700000EB50D480B
:108FE000FFF702FC50200190A720ADF80000002000
:108FF000ADF80800ADF8020069460648FFF73CFFEF
:1090000001210448FFF70CFB012211460148FFF73C
:10901000E3FC0EBD0014004070B504460D4619482F
:10902000844214D01848844211D0184884420ED08B
:10903000174884420BD01748844208D0164884420F
:1090400005D01648844202D01548844200D104E07D
:109050004FF4D771134803F0CBF80DB1012D00D1B7
:1090600004E040F2AF110F4803F0C2F825B1A08927
:1090700040F40050A08104E0A0894DF6FF71084043
:10908000A08170BD00100140004400400048004035
:10909000004C0040005000400014014000780040A7
:1090A000007C00400082010870B504460D4616465B
:1090B0001D48844214D01D48844211D01C4884426B
:1090C0000ED01C4884420BD01B48844208D01B4859
:1090D000844205D01A48844202D01A48844200D102
:1090E00004E040F24E41184803F082F84FF63F701A
:1090F000284008B905B104E040F24F41124803F09E
:1091000077F80EB1012E00D104E04FF48A610E48C9
:1091100003F06EF81EB1A08A2843A08202E0A08A64
:10912000A843A08270BD0000001001400044004030
:1091300000480040004C0040005000400014014036
:1091400000780040007C0040008201082DE9F047D3
:1091500004460D4600270026B046B14644488442E6
:1091600014D04448844211D0434884420ED043482E
:1091700084420BD04248844208D04248844205D001
:109180004148844202D04148844200D104E040F288
:1091900067513F4803F02CF8282D27D040F2277064
:1091A000854223D040F2266085421FD040F22550F0
:1091B00085421BD040F22440854217D040F646003D
:1091C000854213D040F66A1085420FD0B5F5587F1E
:1091D0000CD040F22530854208D0B5F5587F05D037
:1091E000B5F5187F02D0B5F5B07F00D104E04FF49B
:1091F000AD61274802F0FCFF40F66A10854211D1AC
:109200001B48844208D01B48844205D01A48844237
:1092100002D01C48844200D104E040F26D511C4849
:1092200002F0E6FFC5F3421805F01F06012000FA20
:1092300006F6B8F1010F02D1A089064007E0B8F1A7
:10924000020F02D1208A064001E0A08A06402F12B8
:10925000012000FA07F7208807401EB117B14FF030
:10926000010901E04FF000094846BDE8F087000021
:10927000001001400044004000480040004C004005
:10928000005000400014014000780040007C004085
:10929000008201082DE9F04704460D4617464FF0BD
:1092A0000008C246C14600263E48844214D03E48CB
:1092B000844211D03D4884420ED03D4884420BD0B8
:1092C0003C48844208D03C48844205D03B48844214
:1092D00002D03B48844200D104E040F2D4413948F6
:1092E00002F086FF282D19D040F22770854215D054
:1092F00040F22660854211D040F2255085420DD0C3
:1093000040F22440854209D040F64600854205D00F
:1093100040F66A10854201D0602D00D104E040F291
:10932000D541284802F064FF0FB1012F00D104E0BD
:1093300040F2D641234802F05BFF40F66A108542B6
:1093400011D11848844208D01748844205D01748E4
:10935000844202D01848844200D104E040F2DB414C
:10936000184802F045FF2646C5F3421805F01F0ACB
:10937000012000FA0AF9B8F1010F01D10C3605E01D
:10938000B8F1020F01D1103600E0143627B1306871
:1093900040EA0900306003E0306820EA09003060EC
:1093A000BDE8F08700100140004400400048004044
:1093B000004C004000500040001401400078004084
:1093C000007C0040008201082DE9FF4705460C465D
:1093D0000026B14600BFB0467348854214D073489A
:1093E000854211D0724885420ED0724885420BD01A
:1093F0007148854208D07148854205D07048854241
:1094000002D07048854200D103E0FE216E4802F090
:10941000EFFE206820B16D492068884200D203E049
:10942000FF21694802F0E4FEA08818B1A088B0F5D9
:10943000805F00D104E04FF48071634802F0D8FEF1
:10944000E08858B1E088B0F5805F07D0E088B0F5DB
:10945000005F03D0E088B0F5405F00D104E040F247
:109460000111594802F0C4FE208938B12089B0F5B5
:10947000806F03D02089B0F5C06F00D104E04FF4B5
:109480008171514802F0B4FE60894FF6F3710840D3
:1094900010B9608900B104E040F203114A4802F0BB
:1094A000A7FEA08958B1A089B0F5807F07D0A08918
:1094B000B0F5007F03D0A089B0F5407F00D104E073
:1094C0004FF48271404802F093FEA08988B136487B
:1094D000854208D03548854205D03548854202D0BE
:1094E0003648854200D104E040F20911364802F0C6
:1094F0007FFE2E8A26F44056E08806432E82AE89EF
:1095000041F20C608643A0882189084361890843A1
:109510000643AE81AE8A26F44076A0890643AE8229
:109520006846FEF7F5FC2048854202D02348854274
:1095300002D1DDF80C9001E0DDF80890A88900F474
:10954000004040B109EBC90000EB09102168490057
:10955000B0FBF1F707E009EBC90000EB0910216847
:109560008900B0FBF1F76420B7FBF0F00601300989
:10957000642101FB1078A88900F4004040B132203A
:1095800000EBC800B0FBF1F000F00700064308E074
:10959000322000EB08106421B0FBF1F000F00F0066
:1095A00006432E81BDE8FF870010014000440040C3
:1095B00000480040004C00400050004000140140B2
:1095C00000780040007C004000820108E1707200D9
:1095D00010B504461048844214D01048844211D07B
:1095E0000F4884420ED00F4884420BD00E4884426C
:1095F00008D00E48844205D00D48844202D00D4860
:10960000844200D104E04FF410710B4802F0F0FDE9
:10961000A088C0F3080010BD0010014000440040C5
:1096200000480040004C0040005000400014014041
:1096300000780040007C00400082010800BFFEE787
:1096400010B56B4800F056FA81B269484038A0F86E
:10965000AC156C3000F04EFA81B265484038A0F885
:10966000AE15983000F046FA81B261484038A0F853
:10967000BC15C43000F03EFA81B25D484038A0F815
:10968000BE15F03000F036FA81B259484038A0F8E3
:10969000C01500F5DE7000F051FD81B2544840382D
:1096A000A0F8B81500F5F27000F048FD81B25048FE
:1096B0004038A0F8BA1500F5B67000F03FFD81B251
:1096C0004B484038A0F8B41500F5CA7000F036FDDC
:1096D00081B247484038A0F8B61500F58E7000F00A
:1096E0002DFD81B242484038A0F8B01500F5A270B7
:1096F00000F024FD81B23E484038A0F8B21500F5D4
:10970000037000F04FFA3A494039C1F86C0501F591
:109710000D7000F047FA36494039C1F8700501F57F
:10972000177000F03FFA32494039C1F8740501F56D
:10973000557000F037FA2E494039C1F8900501F50F
:10974000667000F02FFA2A494039C1F8940501F5F6
:10975000846000F027FA26494039C1F8980501F2E3
:10976000644000F01FFA22494039C1F89C0501F518
:10977000956000F017FA1E494039C1F8A00501F2C2
:10978000EC4000F00FFA1A494039C1F8A40501F580
:10979000A66000F007FA16494039C1F8A80501F59E
:1097A000217000F0FFF912494039C1F8780501F540
:1097B0002B7000F0F7F90E494039C1F87C0501F52E
:1097C000357000F0EFF90A494039C1F8800501F51C
:1097D0003F7000F0E7F906494039C1F8840501F50A
:1097E000497000F0DFF902494039C1F8880510BD21
:1097F000D86D002010B50346C2F16400584301FB48
:109800000200642490FBF4F010BD000010B505F0D8
:10981000CDFF344908605F2341F294120846016885
:10982000314800F007F95F2341F294122D48016896
:10983000091D2D482C3000F0FDF85F2343F2124241
:109840002848016820312848583000F0F3F85F2399
:1098500043F212422348016824312348843000F047
:10986000E9F85F2343F212421E48016828311E487E
:10987000B03000F0DFF8052300221A4801680831F3
:109880001948DC3000F0D6F805230022154801689D
:109890000C31164800F0CEF805230022114801686B
:1098A00010311248283000F0C5F8052300220D4879
:1098B000016814310D48503000F0BCF80523002237
:1098C0000848016818310948783000F0B3F80523DA
:1098D0000022044801681C310448A03000F0AAF8B6
:1098E00010BD000014000020D86D0020DC6E0020A8
:1098F00010B505F0CBFF4849086048484849086062
:1099000045480168474800F093F843480168091D3D
:109910004448283000F08CF83F480168083141483D
:10992000503000F085F83C4801680C313D487830F3
:1099300000F07EF83848016810313A48A03000F055
:1099400077F83548016814313648C83000F070F8AF
:109950003148016818313348F03000F069F82E487A
:1099600001681C31304800F063F80A232C48026873
:109970001C322948016838312B48283000F019FE84
:109980000A23274802682032234801683C312648D0
:109990006C3000F00EFE0A232148026818321E487F
:1099A000016834312048B03000F003FE0A231C481F
:1099B00002681948016848311B48F43000F0F9FD8D
:1099C0000A2317480268121D134801684C311748D2
:1099D00000F0EFFD0A231248026808320E480168C1
:1099E00050311248443000F0E4FD0A230C4802686C
:1099F0000C320948016854310C48883000F0D9FD18
:109A00000A230748026810320348016858310348A6
:109A10009C3800F0CEFD10BD180000205C730020C3
:109A20001C000020A46F0020BC700020F4710020F6
:109A30000161704701614261002B02DB642B00DC95
:109A40008361704710B5044620690068E061E268F0
:109A50006168E06941F82200D4E90621206AFFF735
:109A6000C9FE206200BFE068401CE060D4E902103B
:109A7000884201DB0020E06000BF10BD02490160A8
:109A80000021C16070470000407E010810B5044607
:109A900003482060606800F03DFF204610BD0000D4
:109AA000407E010870B50446207CA8B901202074CE
:109AB00020460DF0B7FB20460DF0AAFB054606E058
:109AC000284600F0E4FB20460DF0A2FB0546002DE1
:109AD000F6D10020207400BF70BD704700214160A6
