:020000040800F2
:10400000B8080120B5420008A57A0008D543000889
:10401000A17A0008155A000899A8000800000000BD
:104020000000000000000000000000004D900008AB
:10403000C94200080000000023430008099200085C
:10404000CF420008CF420008CF420008CF4200080C
:10405000CF420008CF420008CF420008CF420008FC
:10406000CF420008CF420008CF420008CF420008EC
:10407000CF420008CF420008CF420008CF420008DC
:10408000CF420008CF420008CF420008CF420008CC
:10409000195A0008CF420008CF420008CF4200085A
:1040A000CF420008CF420008CF420008CF420008AC
:1040B000CF420008CF42000885960008CF42000892
:1040C000CF420008CF420008CF420008CF4200088C
:1040D000CF420008654F0008CF420008CF420008D9
:1040E000CF420008CF420008CF420008CF4200086C
:1040F000CF420008CF420008CF420008CF4200085C
:10410000CF420008CF420008CF420008CF4200084B
:10411000CF420008CF420008CF420008C9960008ED
:10412000CF420008CF420008CF420008CF4200082B
:10413000CF420008CF420008CF420008CF4200081B
:10414000695A0008CF420008CF420008CF42000859
:10415000CF420008CF420008CF420008CF420008FB
:10416000CF420008CF420008CF420008CF420008EB
:10417000CF420008CF420008CF420008CF420008DB
:10418000CF420008CF4200085343305800000000DF
:10419000000000000000000000000000000000001F
:1041A00000F002F800F076F80AA090E8000C8244D3
:1041B0008344AAF10107DA4501D100F06BF8AFF2B0
:1041C000090EBAE80F0013F0010F18BFFB1A43F0F5
:1041D00001031847B8840100D88401000A444FF055
:1041E000000C10F8013B13F0070408BF10F8014B56
:1041F0001D1108BF10F8015B641E05D010F8016B9B
:10420000641E01F8016BF9D113F0080F1EBF10F8FE
:10421000014BAD1C0C1B09D16D1E58BF01F801CB21
:10422000FAD505E014F8016B01F8016B6D1EF9D5A4
:104230009142D6D3704700000023002400250026B9
:10424000103A28BF78C1FBD8520728BF30C148BFF9
:104250000B607047642900F01181732900F0998484
:10426000002070471FB516F001FF9DE8030000F025
:1042700015FD00F0F1FD04000020002116F0F4FC13
:10428000401C606000F0B4FB1FBD10B5002000F0C2
:10429000BCFC10BD00F0BAFD1146FFF7E3FF0FF0C4
:1042A000AFF900F005FE03B4FFF7EFFF03BC00F029
:1042B000A7FD00000948804709480047FEE7FEE7E0
:1042C000FEE7FEE7FEE7FEE7FEE7FEE7FEE7FEE7C6
:1042D00004480549054A064B70470000199200083A
:1042E000A1410008B8020120B8080120B80401204B
:1042F000B8040120EFF3108072B6704780F3108885
:104300007047394A1368012B04D04FF00103136042
:10431000364A1060364A116036484FF080510160CD
:104320007047EFF3108272B62F48016821B34FF047
:10433000000101602D48016891B1EFF309811EF081
:10434000100F08BF21ED108B21E9F00F4FF0000492
:104350001EF0100F08BF012441F8044D00680160F1
:1043600023490968096808C9B1E8F00F002B18BF94
:10437000B1EC108B81F3098882F310884EF0100E97
:10438000002B18BF2EF0100E4EF0040E7047184987
:104390000860EFF3148222F0040282F314881349B8
:1043A0004FF00000086010494FF00100086012480B
:1043B0004FF47F01D0F8002041EA020101600D486E
:1043C0004FF0805101600D480068006880F3088854
:1043D00062B67047EFF3098000B512F021F95DF87D
:1043E00004EB4EF0040E7047900400208804002077
:1043F0008C04002004ED00E020ED00E008ED00E07A
:104400000FB41CB5074B06AA7B446946009005987B
:1044100000F095FB0020694600F0A4FB1CBC5DF891
:1044200014FB00005907000070B50C460546012A30
:1044300005D02878800600D5EA69002302E0012330
:1044400005E05B1C934202D2E05C0028F9D1A86928
:10445000E618C01AA861286A184428622846AFF3F3
:10446000008004E0D5E9012114F8010B9047B44223
:10447000F8D32846AFF3008070BD00002DE9F0416D
:104480000646002410687529314616A510D0AFF3F2
:104490000080002802DA404213A507E031688A074D
:1044A00001D512A502E0490704D511A5012401E0B8
:1044B000AFF3008000210A2206F1240709E0B0FBD7
:1044C000F2FCB0FBF2F302FB1C00303078541846CB
:1044D000491C0028F3D123462A463046BDE8F04166
:1044E00000F0CFBA000000002D0000002B000000FB
:1044F000200000002DE9F05F894604464FF0000AD5
:10450000DFF824B1FB44C0F820A02046E1688847CA
:1045100000287DD0252806D0D4E901219047206AC3
:10452000401C2062F1E700255F462046E16888478D
:104530002028064607DB312E05D2B81910F8200CCA
:1045400008B10543F1E7A80701D525F00405C4F833
:104550001CA00027C4F818A02A2E09D0304609F064
:1045600041FD38B304EB8708303EC8F8186019E005
:1045700059F8041B204604EB87029161E1688847E3
:10458000012F064618D1E069002820DA25F0200521
:104590001DE0D8F8180000EB800006EB4000303832
:1045A000C8F818002046E1688847064609F01AFD59
:1045B0000028EED1012F0AD02E2E08D12046E16826
:1045C00088477F1C0646022F45F02005C4DBA06902
:1045D000002803DA404245F00105A061E80701D058
:1045E00025F01005A6B1A6F14100192802D8203601
:1045F00045F400654A463146204625604D46FFF7A2
:1046000029FE60B1012807D0ED1D25F0070000E06C
:1046100007E000F1080978E705F1040975E730467D
:104620007AE7206ABDE8F09F5476010070B506462F
:1046300000F0F4F90468054630460A22002100F033
:10464000ACFA2C6070BD2DE9F041074615460E46C8
:10465000102000F0E7F904000AD06760C4E90265A1
:1046600000F0D8F90168216004600020BDE8F08105
:104670000120FBE740EA0103024630B59B0710D159
:104680004FF0013400E008C208C91D1B9D4315EA24
:10469000C41FF8D013F0FF0102F8011B0DD01B0A54
:1046A000F8E711F8013B002B02F8013B05D011F8A7
:1046B000013B002B02F8013BF3D130BD10B5431C88
:1046C00002E010F8011B71B18107FAD14FF00132FD
:1046D00002C88C1A8C4314EAC211F9D0C01A0A0617
:1046E00003D0C01E10BDC01A10BD0A0401D0801E28
:1046F00010BD0902FCD0401E10BD40EA010370B598
:104700009B072ED14FF00136042A2AD308C810C9BE
:104710009D1B9D43121F15EAC61517D0D8B2E1B2F2
:10472000401A50EA056110D198B2A1B2401A50EA7D
:1047300005410AD123F07F4024F07F41401A50EA1E
:10474000052102D1180EA0EB146070BDA342DBD08E
:1047500018BA21BA884201D9012070BD4FF0FF304C
:1047600070BD0AB9002070BD10F8013B11F8014B73
:1047700063B1A3420AD1521E08D010F8013B11F8D0
:10478000014B1BB1A34201D1521EEDD1181B70BDCC
:10479000032A40F2308010F0030C00F0158011F86D
:1047A000013BBCF1020F624498BF11F801CB00F845
:1047B000013B38BF11F8013BA2F1040298BF00F899
:1047C00001CB38BF00F8013B11F0030300F0258056
:1047D000083AC0F0088051F8043B083A51F804CB7D
:1047E000A0E80810F5E7121D5CBF51F8043B40F843
:1047F000043BAFF30080D20724BF11F8013B11F84E
:1048000001CB48BF11F8012B24BF00F8013B00F891
:1048100001CB48BF00F8012B704710B5203AC0F01B
:104820000B80B1E81850203AA0E81850B1E81850B1
:10483000A0E81850BFF4F5AF5FEA027C24BFB1E8EE
:104840001850A0E8185044BF18C918C0BDE810405F
:104850005FEA827C24BF51F8043B40F8043B08BF68
:104860007047D20728BF31F8023B48BF11F8012B2F
:1048700028BF20F8023B48BF00F8012B70474FF0DB
:1048800000020429C0F0128010F0030C00F01B801D
:10489000CCF1040CBCF1020F18BF00F8012BA8BF2B
:1048A00020F8022BA1EB0C0100F00DB85FEAC17CEF
:1048B00024BF00F8012B00F8012B48BF00F8012BA2
:1048C00070474FF0000200B51346944696462039D3
:1048D00022BFA0E80C50A0E80C50B1F12001BFF4B9
:1048E000F7AF090728BFA0E80C5048BF0CC05DF81F
:1048F00004EB890028BF40F8042B08BF704748BF6D
:1049000020F8022B11F0804F18BF00F8012B7047E0
:1049100010B5044610F0030F08BF11F0030F40F06C
:1049200015804FF0013E121FC0F20E8051F8043B7B
:10493000A3EB0E0C2CEA030C1CEACE1C08BF40F8BB
:10494000043BF0D0A1F1040102F10402521E08DB85
:1049500011F8013B002B00F8013BF7D11146FFF79E
:104960008EFF204610BD00004FF0013C50F8042B94
:1049700051F8043B9A4221D1A2EB0C03934313EA72
:10498000CC1317D150F8042B51F8043B9A4215D19F
:10499000A2EB0C03934313EACC130BD150F8042B76
:1049A00051F8043B9A4209D1A2EB0C03934313EA5A
:1049B000CC13DBD04FF00000704700BFD01A01BA13
:1049C000B1FA81F101F0180122FA01F0CB40C1F1F6
:1049D0002001DBB2C0B2C01A2CFA01F3D11A914304
:1049E00011EAC311E6D17047704770477047000065
:1049F00070B5064C7C44064D7D4403E0206820449D
:104A00008047241DAC42F9D170BD0000D47D010067
:104A1000DC7D0100004870478C020120004870478F
:104A20005402012070B5064600F01CF9056806F135
:104A30000B0020F00704B4429CBF002070BD2B4641
:104A40006A68BAB11068A04210D304F10801884224
:104A50003CBF5068586007D3516810194160116815
:104A6000091B016058601460101D70BD1346526828
:104A7000002AE7D12146284600F0FCF80028DED1C4
:104A800070BD2DE9F0470D4699469246044600F167
:104A900024080168880604D5E06921F0100121602E
:104AA00000E00120A84201DD471B00E00027A169CA
:104AB0007A1902EB0900081AA0612078C00602D416
:104AC0002046AFF30080002608E0D4E901211AF85F
:104AD00006009047206A401C761C20624E45F4DB9D
:104AE0002078C0060AD52046AFF3008006E0D4E95E
:104AF000012130209047206A401C2062381EA7F117
:104B00000107F4DC07E0D4E9012118F8050090471B
:104B1000206A401C2062281EA5F10105F3DC204616
:104B2000AFF300802078000602D50220BDE8F087B0
:104B30000120FBE701694A1C02610878704700B553
:104B40008FB0CDE901310021059105497944CDE9C6
:104B5000031011466846FFF7CDFC0FB000BD000002
:104B6000E5FFFFFF0A6802F8010B0A60704710B505
:104B7000436913B1AFF3008001E0FFF755FC01205A
:104B800010BD127800F124010A7000224A7001223F
:104B9000EDE711684FF0FF32E9E72DE9F047914664
:104BA0000F4680460446002614F8015B2DB100F044
:104BB00051F80068405DC007F6D12B2D02D02D2D95
:104BC00018D0641E4A463946204600F0C4F827B182
:104BD0003968A14201D1C7F800804FF00204710585
:104BE0000BD54042002803DDFFF718FF0460A00743
:104BF000BDE8F08746F48066E4E70028F8DAFFF7BE
:104C00000DFF04606FF00040F2E72DE9F041064629
:104C1000FFF700FF8046454613E016B1E068B0425A
:104C20000ED120682860D4E90101D8F800708847C7
:104C3000204600F069F8D8F80000B842EBD100E057
:104C400025462C68002CE8D1BDE8F081004870476B
:104C50005402012010B500F0FFF8001D10BD00BF88
:104C600009600100004870475C02012070477047EE
:104C70007047704738B504460A4600206946AFF3CE
:104C80000080002808BF38BD02460099204600F089
:104C9000E7F8012038BD012000F02CB9F8B5AFF3DA
:104CA0000080054600200C46102000BF0646A819CB
:104CB000A0420DD9324669460020AFF300800700BC
:104CC00008BF00F017F90098A04218BF0546C419A4
:104CD000FFF7C8FF05600746F01D20F007004619E2
:104CE000284600F00AF8B44208BFF8BDA21B3146BE
:104CF0003868BDE8F84000F0B3B800210160C0E9B1
:104D0000011070471020704770B50446051FFFF76B
:104D1000A9FF0068002C14BF446870BD002C18BFA8
:104D2000AC423CBF20466468F8D301680A18AA4226
:104D300018BF456003D12A68054611440160286800
:104D40004119A1421CBF6C6070BD61686960216837
:104D50000844286070BD2DE9F05F824615468B46F9
:104D600000270AF10104B9460078302801D09DB12E
:104D700013E014F8010B0127782803D0582801D03C
:104D800045B10AE00DB1102D07D1002714F8010B31
:104D9000102502E0082500E00A250026B0460EE0B6
:104DA00005FB080005FB06F101271FFA80F801EB5F
:104DB0001046B6F5803F00D3B94614F8010B2946DA
:104DC00000F068F80028EBDABBF1000F05D00FB156
:104DD000641E00E05446CBF80040B9F1000F06D045
:104DE000FFF71CFE02210160C81EBDE8F09F48EAE3
:104DF0000640FAE7002801D000F002B87047000032
:104E000001491820ABBEFEE7260002007546FFF7F9
:104E10001DFFAE4605006946534620F00700854653
:104E200018B020B5FFF754FABDE820404FF0000657
:104E30004FF000074FF000084FF0000B21F0070182
:104E4000AC46ACE8C009ACE8C009ACE8C009ACE8C5
:104E5000C0098D4670470000004870477402012069
:104E6000034640688C46002818BF88423CBF034672
:104E70004068F8D318681844884207D00CF1030042
:104E800020F00700001D411A521A0146081D0A6051
:104E9000FFF73ABF3A2800D2303820F02002412AEA
:104EA00001D3A2F13700884201D34FF0FF307047A1
:104EB00010B50446AFF300802046BDE81040FFF770
:104EC000F2B970B505460C460A2000E06D1C00F0F2
:104ED00018F835B128780028F8D102E0641C00F0F9
:104EE00010F814B120780028F8D1BDE870400A20ED
:104EF00000F007B810B500F00DF8BDE81040FFF75E
:104F000079BF08B569468DF800000320ABBE08BD27
:104F10007047000010B5012805D0002103A0FFF75D
:104F2000D0FF012010BD09A1F8E700005349475206
:104F3000544D454D3A204F7574206F662068656169
:104F400070206D656D6F7279000000003A20486531
:104F50006170206D656D6F727920636F727275700C
:104F60007465640010B540F22441084805F01CFA4D
:104F700050B1064805F05AFC0021054805F058F8E4
:104F80000121034804F0CCFC10BD000000100140DA
:104F90000014004070B504460D461148844205D007
:104FA0001048844202D01048844200D104E04FF4FB
:104FB000C9710E480AF074F80DB1012D00D104E05A
:104FC00040F2931109480AF06BF825B1A06840F04F
:104FD0000100A06003E0A06820F00100A06070BDA7
:104FE000002001400021014000220140C4BC010812
:104FF00070B504460025206818B32068012820D029
:10500000206802281DD0206805281AD020680628AC
:1050100017D02068072814D02068092811D02068EC
:1050200011280ED0206812280BD02068152808D02F
:105030002068162805D02068172802D02068192873
:1050400000D104E040F259113F480AF029F86068A5
:1050500058B16068B0F5803F07D06068B0F5003F98
:1050600003D06068B0F5403F00D104E04FF4AD716B
:1050700035480AF015F8A06858B1A068B0F5804F1F
:1050800007D0A068B0F5004F03D0A068B0F5404F3E
:1050900000D104E040F25B112B480AF001F8E0680F
:1050A000D8B3E068B0F5807F37D0E068B0F5007F16
:1050B00033D0E068B0F5407F2FD0E068B0F5806F66
:1050C0002BD0E068B0F5A06F27D0E068B0F5C06FD6
:1050D00023D0E068B0F5E06F1FD0E068B0F5006F56
:1050E0001BD0E068B0F5106F17D0E068B0F5206F06
:1050F00013D0E068B0F5306F0FD0E068B0F5406FC6
:105100000BD0E068B0F5506F07D0E068B0F5606F85
:1051100003D0E068B0F5706F00D104E04FF4AE71D9
:10512000094809F0BDFF0948056809480540D4E968
:1051300000010843A1680843E168084305430548A6
:10514000C0F8045370BD0000C4BC01080423014032
:10515000E030FCFF0020014070B504460D461148C8
:10516000844205D01048844202D01048844200D1C5
:1051700004E040F21F410E4809F092FF0DB1012DED
:1051800000D104E04FF48461094809F089FF25B19A
:10519000A06840F48070A06003E0A06820F48070F4
:1051A000A06070BD002001400021014000220140AC
:1051B000C4BC010870B504460D461148844205D0B0
:1051C0001048844202D01048844200D104E040F2EA
:1051D00037410E4809F064FF0DB1012D00D104E004
:1051E0004FF48761094809F05BFF25B1A06840F4DE
:1051F0000070A06003E0A06820F40070A06070BDA3
:10520000002001400021014000220140C4BC0108EF
:105210001CB50020009001900121072003F022FB23
:10522000FE20009003208DF8040000208DF8070078
:1052300069460D4802F008FA032000908DF804003A
:1052400000208DF807006946084802F0FDF90720A4
:10525000009003208DF8040000208DF807006946B7
:10526000034802F0F1F91CBD0000024000040240B6
:10527000000802402DE9F04105460C4600260027B3
:105280006148854205D06148854202D06048854228
:1052900000D103E0F0215F4809F002FF206858B117
:1052A0002068B0F1807F07D02068B0F1007F03D084
:1052B0002068B0F1407F00D103E0F121554809F0AA
:1052C000EFFE207910B12079012800D103E0F2210E
:1052D000504809F0E5FE607910B16079012800D1ED
:1052E00003E0F3214B4809F0DBFEA06858B1A06849
:1052F000B0F1805F07D0A068B0F1005F03D0A06874
:10530000B0F1405F00D103E0F421424809F0C8FE4B
:10531000E068D8B3E068B0F1807F37D0E068B0F1E2
:10532000007F33D0E068B0F1407F2FD0E068B0F16B
:10533000806F2BD0E068B0F1A06F27D0E068B0F1AB
:10534000C06F23D0E068B0F1E06F1FD0E068B0F12B
:10535000006F1BD0E068B0F1106F17D0E068B0F1BB
:10536000206F13D0E068B0F1306F0FD0E068B0F17B
:10537000406F0BD0E068B0F1506F07D0E068B0F13B
:10538000606F03D0E068B0F1706F00D103E0F521E9
:10539000204809F085FE206918B12069B0F5006F3A
:1053A00000D103E0F6211B4809F07AFE207D012898
:1053B00003DB207D102800DC03E0F721154809F00D
:1053C0006FFE6E68144806402179206840EA01208B
:1053D00006436E60AE6811480640D4E903100843E6
:1053E000A1680843617940EA41000643AE60EE6A75
:1053F00026F47006207D401EC0B2074346EA0756D9
:10540000EE62BDE8F0810000002001400021014073
:1054100000220140C4BC0108FFFEFFFCFDF7FFC0F5
:105420002DE9F04706460C46174698460025A94642
:105430006148864205D06148864202D06048864273
:1054400000D104E040F2CF215E4809F029FE1CB3F0
:10545000012C21D0022C1FD0032C1DD0042C1BD0DA
:10546000052C19D0062C17D0072C15D0082C13D0DA
:10547000092C11D00A2C0FD00B2C0DD00C2C0BD0DA
:105480000D2C09D00E2C07D00F2C05D0102C03D0DA
:10549000112C01D0122C00D104E04FF43471494892
:1054A00009F0FEFD012F02DB102F00DC04E040F2CA
:1054B000D121444809F0F4FDB8F1000F14D0B8F13F
:1054C000010F11D0B8F1020F0ED0B8F1030F0BD0BD
:1054D000B8F1040F08D0B8F1050F05D0B8F1060FE8
:1054E00002D0B8F1070F00D104E040F2D2213548D4
:1054F00009F0D6FD092C13DDF568A4F10A0000EBD4
:105500004001072000FA01F925EA0905A4F10A0083
:1055100000EB400008FA00F945EA0905F5600EE0E5
:10552000356904EB4401072000FA01F925EA090571
:1055300004EB440008FA00F945EA09053561072F34
:1055400011DA756B781E00EB80011F2000FA01F95B
:1055500025EA0905781E00EB800004FA00F945EA07
:105560000905756326E00D2F11DA356BF81F00EB86
:1055700080011F2000FA01F925EA0905F81F00EB58
:10558000800004FA00F945EA0905356312E0F56A7E
:10559000A7F10D0000EB80011F2000FA01F925EAB8
:1055A0000905A7F10D0000EB800004FA00F945EAB7
:1055B0000905F562BDE8F0870020014000210140A7
:1055C00000220140C4BC01083EB50748C46CD72086
:1055D0000290012001AB024602A90090204612F081
:1055E0004FFF9DF804003EBD70C000200146002022
:1055F00070470000F8B507460D46144627B97022DB
:10560000234924A010F088F9102D0BD1214611B99F
:105610004FF0FF30F8BD4FF400704860C0000860E4
:10562000886000BF122D31D12646307910B1012893
:105630002AD116E081208DF800003088C0F3871051
:105640008DF8010030788006000E8DF802000020F1
:105650008DF8030013490422C86C694612F004FF58
:1056600012E0C7208DF8000094208DF80100802002
:105670008DF802009A208DF803000A490422C86CB4
:10568000694612F0F1FE00BF00BF00BF0020C1E775
:105690002EBB010864657620213D2052545F4E5593
:1056A0004C4C000070C000200146002070470246AC
:1056B000002070472DE9FE4F0F4690461C46C2461B
:1056C0003D46A3464FF0000921E0002603E00020FC
:1056D00001A98855761C082EF9D3D2208DF8040034
:1056E000C5F347108DF80500E806000E8DF806009A
:1056F0004FF480600849009053460822C86C01A905
:1057000012F0BEFE0AF5806A6D1C09F10109D94547
:10571000DBD32046BDE8FE8F70C000202DE9FE4F90
:105720000F4690461C46C2463D46A3464FF0000930
:1057300021E0002603E0002001A98855761C082EF0
:10574000F9D3D2208DF80400C5F3C7108DF80500F9
:105750006806000E8DF806004FF48070084900902E
:1057600053460822C86C01A912F08AFE0AF5807A15
:105770006D1C09F10109D945DBD32046BDE8FE8F38
:1057800070C000202DE9FE4F0F4690461C46C246D1
:105790003D46A3464FF0000921E0002603E000202B
:1057A00001A98855761C082EF9D3D2208DF8040063
:1057B000C5F387108DF80500A806000E8DF80600C9
:1057C0004FF400700849009053460822C86C01A9A4
:1057D00012F056FE0AF5007A6D1C09F10109D9454F
:1057E000DBD32046BDE8FE8F70C000202DE9FC5FB2
:1057F00083460E4617461C46B9463546A2464FF02C
:1058000000081EE082208DF80400C5F347108DF8D3
:105810000500E806000E8DF8060000208DF8070050
:105820004FF48060094900904B460422C86C01A9DE
:1058300012F0B6FE09F580696D1C15F0D9F808F173
:105840000108D045DED32046BDE8FC9F70C0002093
:105850002DE9FC5F83460E4617461C46B946354681
:10586000A2464FF000081EE082208DF80400C5F328
:10587000C7108DF805006806000E8DF806000020A0
:105880008DF807004FF48070094900904B460422C0
:10589000C86C01A912F084FE09F580796D1C15F021
:1058A000A7F808F10108D045DED32046BDE8FC9FEB
:1058B00070C000202DE9FC5F83460E4617461C464B
:1058C000B9463546A2464FF000081EE082208DF80A
:1058D0000400C5F387108DF80500A806000E8DF8AA
:1058E000060000208DF807004FF400700949009071
:1058F0004B460422C86C01A912F052FE09F500794A
:105900006D1C15F075F808F10108D045DED320466E
:10591000BDE8FC9F70C0002008B50748007800B9BA
:1059200008BD06484FF0FF330622032100900448CB
:1059300010F002FC00BFF3E7180400201C04002054
:105940007895002010B5002203A1054810F0D0FB87
:105950000449086010BD0000455F43616E0000000F
:10596000789500202004002010B50648006838B95A
:1059700005480078012803D10121044810F0D4FC27
:1059800010BD00002004002018040020789500209D
:1059900010B50648006838B905480078012803D1D9
:1059A0000221044810F0C0FC10BD000020040020BB
:1059B00018040020789500201CB50121084602F04B
:1059C00051FF0121042002F04DFF4FF4C050009020
:1059D00001208DF8040000208DF8060003208DF8CA
:1059E000050000208DF807006946084801F02CFEEC
:1059F0004FF4807000906946054801F025FE4FF491
:105A0000C051024801F0FCFF1CBD00000000024034
:105A10000008024000BFFEE710B50F48006800EB29
:105A200080000E4901EB800200210D4800F09CFC33
:105A30000948006800EB8000084A02EB8001094831
:105A400011F010FB04480068401C0349086040281E
:105A500001D10020086010BD2C040020289C0020EB
:105A6000006400409895002010B50421184800F00B
:105A700045FA20B10421164800F032F827E0082149
:105A8000134800F03BFA20B10821114800F028F833
:105A90001DE01048006800EB80000F4901EB800218
:105AA00000210B4800F060FC0A48006800EB800011
:105AB000094A02EB8001094811F0D4FA0548006850
:105AC000401C04490860402801D10020086010BD36
:105AD000006800403004002028A10020C895002064
:105AE00070B504460D464148844202D04048844285
:105AF00000D104E040F23C613E4809F0D1FA012DAA
:105B00001CD0042D1AD0082D18D0202D16D0402DD1
:105B100014D0B5F5807F11D0B5F5007F0ED0B5F566
:105B2000806F0BD0B5F5006F08D0B5F5004F05D0EC
:105B3000B5F5803F02D0B5F5003F00D104E040F25A
:105B40003D612C4809F0ACFAB5F5007F3AD00FDC86
:105B5000202D28D006DC012D1CD0042D1DD0082DB1
:105B600040D11DE0402D21D0B5F5807F3AD126E00F
:105B7000B5F5004F31D006DCB5F5806F25D0B5F511
:105B8000006F2FD124E0B5F5803F12D0B5F5003F6E
:105B900028D111E01848A06025E00820E06022E04C
:105BA0001020E0601FE0082020611CE01020206130
:105BB00019E00820606016E01020606013E0042007
:105BC000606010E0042060600DE0042060600AE086
:105BD0000020A0610420606005E00020A061042096
:105BE000606000E000BF00BF70BD000000640040C6
:105BF0000068004014BD01080101010010B5044611
:105C00001048844202D01048844200D103E0A92108
:105C10000E4809F045FA0B48844209D10121480693
:105C200002F09AFE00214FF0007002F095FE08E0AD
:105C30000121880602F090FE00214FF0806002F002
:105C40008BFE10BD006400400068004014BD0108D8
:105C500070B504460025A07A1B2800DC04E040F261
:105C60005111574809F01CFAE07A10B1E07A012886
:105C700000D104E04FF4A971514809F011FA207BDA
:105C800010B1207B012800D104E040F253114C48B0
:105C900009F006FA208910B12089012800D104E01A
:105CA0004FF4AA71464809F0FBF9607B10B1607BA4
:105CB000012800D104E040F25511414809F0F0F903
:105CC000A17A012000FA01F53E48006840F0010089
:105CD0003C4908603B481C300068A84339491C31E6
:105CE0000860207BC8B937480C300068A8433549A4
:105CF0000C3108606088E18840EA01413148403059
:105D0000A27A40F832102088A18840EA01412D484B
:105D10004030A27A00EBC2004160207B012819D1FB
:105D200028480C300068284326490C3108606088F8
:105D3000218840EA014123484030A27A40F83210DD
:105D4000E088A18840EA01411E484030A27A00EB79
:105D5000C2004160E07A38B91A48001D0068A843C3
:105D60001849091D086006E01648001D0068284310
:105D70001449091D0860208930B9124814300068A0
:105D8000A8431049143108602089012806D10D4824
:105D90001430006828430B4914310860607B0128E7
:105DA00006D108481C300068284306491C310860A9
:105DB0000448006820F001000249086070BD00003E
:105DC00014BD01080066004070B505460C4600266B
:105DD0003E48854202D03E48854200D104E040F270
:105DE00036513C4809F05CF93B4884422DD03B4891
:105DF00084422AD0801E844227D0401E844224D070
:105E00003748844221D0374884421ED0354808386C
:105E100084421AD03448844217D03448844214D083
:105E200032480838844210D0314884420DD031487D
:105E300084420AD03048844207D02F48FF38844239
:105E400003D027480A30844200D104E040F23751A1
:105E5000204809F025F904F4700040B1A869C4F3A2
:105E60001301084008B101262DE000262BE004F0C4
:105E7000807040B16868C4F31301084008B101267E
:105E800021E000261FE004F0006040B1A868C4F3E0
:105E90001301084008B1012615E0002613E004F0C4
:105EA000007040B1E868C4F31301084008B101264E
:105EB00009E0002607E02869C4F31301084008B18F
:105EC000012600E00026304670BD0000006400405E
:105ED0000068004014BD01087000F0300400F010AC
:105EE00008000031100000320300001210000034DE
:105EF00003000014000001380001003870B50446AA
:105F00000D4600265F48844202D05F48844200D19B
:105F100004E040F2D5515D4809F0C2F8012D20D0CF
:105F2000022D1ED0042D1CD0082D1AD0102D18D0F3
:105F3000202D16D0402D14D0B5F5807F11D0B5F5A9
:105F4000007F0ED0B5F5806F0BD0B5F5006F08D08F
:105F5000B5F5004F05D0B5F5803F02D0B5F5003F4F
:105F600000D104E040F2D651484809F099F8606940
:105F70002840002871D0B5F5807F5CD010DC082D5A
:105F800035D006DC012D20D0022D24D0042D72D175
:105F900027E0102D31D0202D35D0402D6BD138E0A9
:105FA000B5F5004F60D009DCB5F5007F49D0B5F5F7
:105FB000806F4CD0B5F5006F5DD14FE0B5F5803FF7
:105FC0002DD0B5F5003F56D12FE0A068304900F044
:105FD00093FC064651E0E068032100F08DFC064684
:105FE0004BE0E068082100F087FC064645E0E068E9
:105FF000102100F081FC06463FE02069032100F0FB
:106000007BFC064639E02069082100F075FC064655
:1060100033E02069102100F06FFC06462DE0606837
:10602000082100F069FC064627E06068102100F0B6
:1060300063FC064621E0A069012100F05DFC0646F4
:106040001BE0A069022100F057FC064615E0A0699C
:10605000042100F051FC06460FE00FE0A06970211A
:1060600000F04AFC064608E06068042100F044FCA9
:10607000064602E0FFE7002600BF00E000263046AB
:1060800070BD0000006400400068004014BD0108BD
:106090000101010070B505460C46164623488542AD
:1060A00002D02348854200D104E040F20C5121483F
:1060B00008F0F6FF012C20D0022C1ED0042C1CD09E
:1060C000082C1AD0102C18D0202C16D0402C14D00C
:1060D000B4F5807F11D0B4F5007F0ED0B4F5806F99
:1060E0000BD0B4F5006F08D0B4F5004F05D0B4F56F
:1060F000803F02D0B4F5003F00D104E040F20D51E2
:106100000C4808F0CDFF0EB1012E00D104E040F2A2
:106110000E51084808F0C4FF1EB168692043686149
:1061200002E06869A043686170BD0000006400403F
:106130000068004014BD01082DE9F04104460D46F9
:10614000002700268548844202D08548844200D139
:1061500003E0C921834808F0A3FFA87910B1A8790A
:10616000012800D103E0CA217E4808F099FFE879B0
:1061700010B1E879012800D103E0CB21794808F07B
:106180008FFF287A10B1287A012800D103E0CC21B2
:10619000744808F085FF687A10B1687A012800D148
:1061A00003E0CD216F4808F07BFFA87A10B1A87AF0
:1061B000012800D103E0CE216A4808F071FFE87A97
:1061C00010B1E87A012800D103E0CF21654808F03A
:1061D00067FFA87840B1A878012805D0A8780228E0
:1061E00002D0A878032800D103E0D0215D4808F050
:1061F00057FFE87840B1E878012805D0E878022810
:1062000002D0E878032800D103E0D121554808F0F6
:1062100047FF28790F2800DC03E0D221514808F01D
:106220003FFF6879072800DC03E0D3214D4808F0E0
:1062300037FF2888012804DB2888B0F5806F00DC50
:1062400003E0D421474808F02BFF206820F002002B
:106250002060206840F00100206000E0761C60684B
:1062600000F0010018B94FF6FF708642F6D1606861
:1062700000F0010008B900276CE0A879012804D1DA
:10628000206840F08000206003E0206820F080005B
:106290002060E879012804D1206840F040002060A7
:1062A00003E0206820F040002060287A012804D113
:1062B000206840F02000206003E0206820F02000EB
:1062C0002060687A012804D1206840F01000206026
:1062D00003E0206820F010002060A87A012804D193
:1062E000206840F00800206003E0206820F00800EB
:1062F0002060E87A012804D1206840F00400206082
:1063000003E0206820F004002060A8788007E97886
:1063100040EA0160297940EA0140697940EA015088
:106320002988491E0843E061206820F001002060B0
:10633000002600E0761C606800F0010018B14FF6FE
:10634000FF708642F6D1606800F0010008B10027B6
:1063500000E001273846BDE8F081000000640040FD
:106360000068004014BD010870B504460D4616468D
:106370004548844202D04548844200D104E04FF4AD
:106380003C71434808F08CFE0DB1012D00D104E0B2
:1063900040F2F1213E4808F083FE04F5D87000EB8E
:1063A0000510006800F004003072307A50B904F52E
:1063B000D87000EB0510006840F2FF7101EA505000
:1063C000306009E004F5D87000EB051000686FF04C
:1063D000604101EAD000706004F5D87000EB051050
:1063E000006800F00200707204F5D87000EB051030
:1063F000406800F00F00B07204F5D87000EB051093
:106400004068000AF07404F5D87000EB051080684D
:10641000F07204F5D87000EB05108068010A317342
:1064200004F5D87000EB05108068010C717304F559
:10643000D87000EB05108068000EB07304F5D870BA
:1064400000EB0510C068F07304F5D87000EB051080
:10645000C068010A317404F5D87000EB0510C068FB
:10646000010C717404F5D87000EB0510C068000EC3
:10647000B07425B9E06840F02000E06003E02069D6
:1064800040F02000206170BD0064004000680040C2
:1064900014BD010800218171C171017241728172C4
:1064A000C1728170C170032101710221417101210A
:1064B0000180704770B505460C4600266948854244
:1064C00002D06948854200D104E04FF41171674859
:1064D00008F0E6FD207A10B1207A042800D104E00B
:1064E00040F24521614808F0DBFD607A10B1607A26
:1064F000022800D104E040F246215C4808F0D0FDBB
:10650000A07A082800DC04E040F24721574808F050
:10651000C7FDA86800F08060B0F1806F01D100264F
:1065200010E0A86800F00060B0F1006F01D1012612
:1065300008E0A86800F08050B0F1805F01D1022629
:1065400000E00426042E7DD005F5C07000EB061097
:10655000006800F0010105F5C07000EB0610016055
:10656000207AC8B92068B0F5006F00D204E040F28C
:1065700061213E4808F094FD607A218840EA41504C
:1065800005F5C07101EB06110968084305F5C071F6
:1065900001EB061108601AE06068B0F1005F00D2FC
:1065A00004E040F26721314808F07AFD207A616802
:1065B00040EAC100617A084305F5C07101EB06119C
:1065C0000968084305F5C07101EB06110860A07A5F
:1065D00000F00F00A07205F5C07000EB06104068D7
:1065E00020F00F0105F5C07000EB0610416005F5C5
:1065F000C07000EB06104068A17A084305F5C07131
:1066000001EB06114860A07B0106607B41EA004176
:10661000207B41EA0020E17A084305F5C07101EBD7
:1066200006118860A07C0106607C41EA0041207C64
:1066300041EA0020E17B084305F5C07101EB06113A
:10664000C86000E00BE005F5C07000EB06100068C4
:1066500040F0010105F5C07000EB06100160304606
:1066600070BD0000006400400068004014BD0108D7
:1066700001200149886070470030024010B5084889
:1066800005F091FC07480078401CC0B2054908702D
:106690000A2801DB00200870014805F003FA10BD4C
:1066A000687700201004002010B5024805F0A8FB10
:1066B00010BD0000687700200EB50020009001900A
:1066C00002902648FFF79AFA6846FFF7E3FE00209B
:1066D0008DF8060001208DF8070000208DF80800D5
:1066E0008DF809008DF80A008DF80B008DF8020076
:1066F0008DF8030003208DF8040000208DF80500BC
:106700000720ADF8000069461448FFF715FD14484E
:10671000FFF774FA6846FFF7BDFE00208DF806000B
:1067200001208DF8070000208DF808008DF8090081
:106730008DF80A008DF80B008DF802008DF803002B
:1067400003208DF8040000208DF805000720ADF827
:10675000000069460248FFF7EFFC0EBD00640040F0
:10676000006800401FB50020009001900290039047
:106770008DF80B0001208DF80C0000208DF80B0027
:1067800001208DF80C00F820ADF804000020ADF8D1
:106790000600ADF8080001208DF80D0000208DF8EE
:1067A0000A008820ADF800000020ADF8020068461D
:1067B000FFF74EFA01208DF80A00E820ADF800003E
:1067C0000020ADF802006846FFF742FA00208DF87D
:1067D0000B0001208DF80C00F820ADF8040000201B
:1067E000ADF80600ADF8080001208DF80D000E2070
:1067F0008DF80A008820ADF800000020ADF80200F6
:106800006846FFF725FA0F208DF80A00E820ADF85A
:1068100000000020ADF802006846FFF719FA1FBD1E
:106820001CB50020009001900121022002F01AF80E
:106830000121480602F068F84FF4407000900220F1
:106840008DF804008DF8050000208DF80600012069
:106850008DF807006946164800F0F6FE0922082167
:10686000134800F0B9FF09221146114800F0B4FFA7
:106870000121880602F048F86020009002208DF87F
:1068800004008DF8050000208DF8060001208DF829
:1068900007006946064800F0D7FE09220521044892
:1068A00000F09AFF09220621014800F095FF1CBD67
:1068B0000004024008B50020009014208DF800006C
:1068C00001208DF8010002208DF8020001208DF8D2
:1068D0000300684601F016F940208DF80000012001
:1068E0008DF8010002208DF8020001208DF80300D0
:1068F000684601F007F908BD0246002002EA0103DC
:106900000BB1012000E000207047000070B5044684
:106910000D46344884423AD032481830844236D04A
:1069200030483030844232D02E48483084422ED015
:106930002C48603084422AD02A487830844226D0BD
:1069400028489030844222D02648A83084421ED065
:10695000254884421BD024481830844217D022484E
:106960003030844213D02048483084420FD01E4833
:10697000603084420BD01C487830844207D01A48DB
:106980009030844203D01848A830844200D104E0FB
:1069900040F23441154808F083FB05F04050B0F157
:1069A000405F07D005F0405020B11148284008B999
:1069B00005B104E040F235410C4808F071FB0A488B
:1069C000844202D2074E103E01E0074E103E05F011
:1069D000005018B107482840F06002E00548284000
:1069E000B06070BD106002401064024064BD0108D8
:1069F00082F002C07D0F7D0F70B504460D462C4815
:106A000084423AD02A481830844236D02848303060
:106A1000844232D02648483084422ED02448603008
:106A200084422AD022487830844226D020489030B0
:106A3000844222D01E48A83084421ED01D48844281
:106A40001BD01C481830844217D01A48303084427A
:106A500013D01848483084420FD016486030844222
:106A60000BD014487830844207D0124890308442CA
:106A700003D01048A830844200D104E040F2E11174
:106A80000D4808F00DFB0DB1012D00D104E04FF4CD
:106A9000F171094808F004FB25B1206840F00100BD
:106AA000206003E0206820F00100206070BD00003D
:106AB000106002401064024064BD010810B51C481B
:106AC00000F040F81B480068001D1B49486000208A
:106AD00048614FF4806088610020C86108624862A4
:106AE00088620420C862032008630020486388632A
:106AF0004FF0006008604020C860104888600120A6
:106B000008610B4800F012F90948303800F01AF813
:106B10004FF00060084908600020C860084888609D
:106B20004FF4007008610248303800F0FFF810BDE3
:106B3000B86402404004002028AA002008A70020D2
:106B400008A8002010B50446724884423AD0714823
:106B50001830844236D06F483030844232D06D488D
:106B6000483084422ED06B48603084422AD0694835
:106B70007830844226D067489030844222D06548DD
:106B8000A83084421ED0644884421BD0624818302A
:106B9000844217D060483030844213D05E48483079
:106BA00084420FD05C48603084420BD05A48783021
:106BB000844207D058489030844203D05648A830C9
:106BC000844200D103E0C721544808F069FA2068E4
:106BD00020F001002060002020606060A060E06084
:106BE0002061212060614B48844204D13D20494905
:106BF000103988608CE047481830844205D14FF442
:106C0000746044491039886082E0424830308442E0
:106C100005D14FF474103F491039886078E03D4841
:106C20004830844205D14FF074603A491039886089
:106C30006EE038486030844204D139483549103913
:106C4000C86065E033487830844204D13548314922
:106C50001039C8605CE02F489030844204D132483B
:106C60002C491039C86053E02A48A830844205D125
:106C70004FF03D5027491039C86049E0264884420A
:106C800004D13D2024490839086041E022481830E9
:106C9000844205D14FF474601F490839086037E019
:106CA0001D483030844205D14FF474101A49083918
:106CB00008602DE018484830844205D14FF07460D8
:106CC00015490839086023E013486030844204D134
:106CD00013481149091F08601AE00F4878308442B0
:106CE00004D110480C49091F086011E00A4890308F
:106CF000844204D10C480849091F086008E006488E
:106D0000A830844204D14FF03D500349091F086068
:106D100010BD0000106002401064024064BD010814
:106D20003D000020400F002000003D2070B50546CA
:106D30000C460026A24885423AD0A1481830854228
:106D400036D09F483030854232D09D484830854209
:106D50002ED09B48603085422AD0994878308542B1
:106D600026D097489030854222D09548A830854259
:106D70001ED0944885421BD092481830854217D0C7
:106D800090483030854213D08E48483085420FD02D
:106D90008C48603085420BD08A487830854207D0D5
:106DA00088489030854203D08648A830854200D17B
:106DB00004E04FF4A271844808F072F92068D8B159
:106DC0002068B0F1007F17D02068B0F1806F13D039
:106DD0002068B0F1C06F0FD02068B0F1006F0BD009
:106DE0002068B0F1206F07D02068B0F1406F03D069
:106DF0002068B0F1606F00D104E040F245117248A4
:106E000008F04EF9E06828B1E068402802D0E06858
:106E1000802800D104E04FF4A3716B4808F040F9DA
:106E2000206920B12069B0F5803F00D204E040F233
:106E30004711654808F034F96069B0F5007F01D06A
:106E4000606900B904E04FF4A4715F4808F028F9C4
:106E5000A069B0F5806F01D0A06900B904E040F2EC
:106E60004911594808F01CF9E06938B1E069B0F5FA
:106E7000006F03D0E069B0F5805F00D104E04FF40B
:106E8000A571514808F00CF9206A38B1206AB0F5B4
:106E9000005F03D0206AB0F5804F00D104E040F2DB
:106EA0004B11494808F0FCF8606A18B1606AB0F507
:106EB000807F00D104E04FF4A671434808F0F0F859
:106EC000A06A58B1A06AB0F5803F07D0A06AB0F5BB
:106ED000003F03D0A06AB0F5403F00D104E040F28B
:106EE0004D11394808F0DCF8E06A10B1E06A042876
:106EF00000D104E04FF4A771334808F0D1F8206BBB
:106F000040B1206B012805D0206B022802D0206BF5
:106F1000032800D104E040F24F112B4808F0C0F8DC
:106F2000606B58B1606BB0F5000F07D0606BB0F1CB
:106F3000807F03D0606BB0F1C07F00D104E04FF4DC
:106F4000A871214808F0ACF8A06B58B1A06BB0F55F
:106F5000001F07D0A06BB0F5800F03D0A06BB0F579
:106F6000C00F00D104E040F25111174808F098F822
:106F70002E6816480640E1682068084361690843A6
:106F8000A1690843E1690843216A0843616A08432B
:106F9000A16A0843616B0843A16B084306432E6056
:106FA0006E6926F00706D4E90B01084306436E61BB
:106FB000206968606068A860A068E86070BD000033
:106FC000106002401064024064BD01083F801CF064
:106FD00010B5044640F2F31024EA000008B904B1E9
:106FE00004E04FF4BE61034808F05AF80248046018
:106FF00010BD0000B4BD01080C3C02402DE9F04179
:1070000004460D46002709266CB3082C2BD0102C03
:1070100029D0182C27D0202C25D0282C23D0302C58
:1070200021D0382C1FD0402C1DD0482C1BD0502CE8
:1070300019D0582C17D0802C15D0882C13D0902C18
:1070400011D0982C0FD0A02C0DD0A82C0BD0B02C88
:1070500009D0B82C07D0C02C05D0C82C03D0D02C18
:1070600001D0D82C00D104E04FF4EF71264808F08D
:1070700017F82DB1012D03D0022D01D0032D00D121
:1070800004E040F2DF11204808F00AF80DB90027AB
:1070900009E0012D01D12F0205E0022D01D12F02BF
:1070A00001E04FF4407700F0AFF80646092E28D1F2
:1070B0001648006820F440701449086008460068CB
:1070C000384308600846006820F0F8000860084669
:1070D000006844F0020108430C4908600846006853
:1070E00040F48030086000F08FF8064607480068DA
:1070F00020F00200054908600846006820F0F8000A
:1071000008603046BDE8F081B4BD0108103C024083
:1071100009201349096801F48031B1F5803F01D19C
:1071200001201CE00E49096801F0100109B1062098
:1071300015E00B49096801F4807109B102200EE0E5
:107140000749096801F0E00109B1072007E0044997
:10715000096801F0020109B1082000E00920704728
:107160000C3C024070B504460D460926B4F1006F90
:1071700002D3B4F1016F05D31648844203D31648F5
:10718000844200D804E040F21931144807F088FF27
:1071900000F03AF80646092E19D11148006820F48B
:1071A00040700F4908600846006840F400700860AD
:1071B0000846006840F001000860256000F024F8EF
:1071C00006460748006820F001000549086030467F
:1071D00070BD00000078FF1F0F7AFF1FB4BD0108CB
:1071E000103C02400548006800F0004028B1044807
:1071F00002490C390860034808607047103C02409F
:1072000023016745AB89EFCD08B509200090FFF752
:107210007FFF009002E0FFF77BFF00909DF80000E9
:107220000128F8D09DF8000008BD000070B50446A4
:107230000D462CB1022C03D0042C01D0062C00D119
:1072400004E04FF49771114807F02AFF0DB1012DAA
:1072500000D104E040F22F110C4807F021FF55B196
:10726000A000A0F1C040006840F00101A000A0F122
:10727000C040016009E0A000A0F1C04000680449DE
:107280000840A100A1F1C041086070BD04BE010822
:10729000FEFF0F002DE9F0410446002500260027DF
:1072A000206840B12068022805D02068042802D058
:1072B0002068062800D103E0A121CF4807F0F0FEA6
:1072C000606810B16068022800D103E0A221CA48BA
:1072D00007F0E6FEA06828B1A068042802D0A068E4
:1072E000082800D103E0A321C34807F0D9FEE068D5
:1072F00010B1E068102800D103E0A421BE4807F0D7
:10730000CFFE206918B12069B0F5807F00D103E07D
:10731000A521B94807F0C4FE606918B16069B0F5ED
:10732000004F00D103E0A621B34807F0B9FEA069E1
:1073300018B1A069B0F5007F00D103E0A721AE48E5
:1073400007F0AEFEE06918B1E069B0F5806F00D1DA
:1073500003E0A821A84807F0A3FE206A18B1206A1C
:10736000B0F5006F00D103E0A921A34807F098FE13
:10737000606A18B1606AB0F5805F00D103E0AA21AD
:107380009D4807F08DFEA06A18B1A06AB0F5005FB5
:1073900000D103E0AB21984807F082FEE06A18B103
:1073A000E06AB0F5804F00D103E0AC21924807F0CD
:1073B00077FE206B18B1206BB0F5002F00D103E0F1
:1073C000AD218D4807F06CFE606B00680F2800D877
:1073D00003E0AE21884807F063FE606B40680F2829
:1073E00000D803E0AF21844807F05AFE606B806844
:1073F00020B1606B8068FF2800D803E0B0217E4890
:1074000007F04EFE606BC0680F2800D803E0B12182
:10741000794807F045FE606B00690F2800D803E04B
:10742000B221754807F03CFE606B40690F2800D818
:1074300003E0B321704807F033FE606B806970B1E0
:10744000606B8069B0F1805F09D0606B8069B0F1DA
:10745000005F04D0606B8069B0F1405F00D103E051
:10746000B421654807F01CFE20688000A0F1C040F0
:10747000056862480540D4E901010843E168084312
:107480002169084361690843A1690843E169084328
:10749000216A0843616A0843A16A0843E16A084314
:1074A000216B0843054320688000A0F1C0400560BF
:1074B000A06808280BD120688000A0F1C0400068B7
:1074C00040F0400120688000A0F1C04001602068C9
:1074D000401C8000A0F1C040066806F04046606B8A
:1074E0000068616B496840EA0110616B896840EA95
:1074F0000120616B898940EA0140616B098A40EA99
:107500000150616B097D40EA0160616B8969084344
:1075100006432068401C8000A0F1C0400660E06A7D
:10752000B0F5804F5ED1A06B00680F2800D803E053
:10753000EC21314807F0B4FDA06B40680F2800D85B
:1075400003E0ED212C4807F0ABFDA06B806820B173
:10755000A06B8068FF2800D803E0EE21264807F0E2
:107560009FFDA06BC0680F2800D803E0EF212248E0
:1075700007F096FDA06B806970B1A06B8069B0F1D7
:10758000805F09D0A06B8069B0F1005F04D0A06B70
:107590008069B0F1405F00D103E0F021164807F0A8
:1075A0007FFD20688000A0F1C040D0F8047114482D
:1075B0000740A06B0068A16B496840EA0110A16B0D
:1075C000896840EA0120A16B898940EA0140A16BEA
:1075D00089690843074320688000A0F1C040C0F8D3
:1075E000047107E06FF0704120688000A0F1C04096
:1075F000C0F80411BDE8F08104BE01088000F7FF67
:107600000000F0CF1CB502208DF8040000208DF89A
:10761000060001208DF8070000208DF805004FF4CA
:10762000C06000906946074800F00EF80722092163
:10763000044800F0D1F807220A21024800F0CCF8F3
:107640001CBD0000000002402DE9F04104460D463B
:1076500000260027B046544884421DD05348844237
:107660001AD05348844217D05248844214D052480A
:10767000844211D0514884420ED0514884420BD0EC
:107680005048844208D05048844205D04F48844234
:1076900002D04F48844200D103E0CF214D4807F08B
:1076A000FFFC288880B200B103E0D021494807F0F0
:1076B000F7FC287940B12879012805D028790228DB
:1076C00002D02879032800D103E0D121414807F0F6
:1076D000E7FCE87928B1E879012802D0E8790228A6
:1076E00000D103E0D2213B4807F0DAFC002657E046
:1076F000012000FA06F7286800EA0708B8454ED1CD
:10770000206872000321914088432060287971002D
:1077100088402168084320602879012802D0287910
:10772000022830D1687940B16879012805D068799C
:10773000022802D06879032800D103E0E42125481B
:1077400007F0AEFCA0687200032191408843A0605E
:10775000687971008840A1680843A060A87910B1D9
:10776000A879012800D103E0EB211A4807F098FC22
:1077700061680120B040814361606168A879B040D0
:1077800080B201436160E068720003219140884348
:10779000E060E87971008840E1680843E060761CA9
:1077A000102EA5D3BDE8F081000002400004024085
:1077B00000080240000C0240001002400014024089
:1077C00000180240001C0240002002400024024039
:1077D0000028024054BE01082DE9F04106460D463E
:1077E00014460027B846544886421DD05348864266
:1077F0001AD05348864217D05248864214D0524875
:10780000864211D0514886420ED0514886420BD054
:107810005048864208D05048864205D04F4886429C
:1078200002D04F48864200D104E040F249214D4841
:1078300007F036FCEDB1012D1BD0022D19D0032D20
:1078400017D0042D15D0052D13D0062D11D0072DDE
:107850000FD0082D0DD0092D0BD00A2D09D00B2DDE
:1078600007D00C2D05D00D2D03D00E2D01D00F2DDE
:1078700000D104E040F24A213A4807F011FCA4B3D9
:10788000092C32D08CB384B37CB374B3012C2CD0CC
:107890002BD0022C29D028D027D0032C25D0042C83
:1078A00023D022D021D0052C1FD01ED0092C1CD0D3
:1078B000062C1AD0092C18D0072C16D015D014D0AD
:1078C000082C12D011D010D0092C0ED00DD00A2CBB
:1078D0000BD00AD00B2C08D00C2C06D005D00D2CC8
:1078E00003D00F2C01D00C2C00D104E040F24B212E
:1078F0001C4807F0D5FB6807C00E04FA00F7E91032
:1079000006F1200050F821006907CA0E0F219140AE
:107910008843EA1006F1200141F82200E91006F13F
:10792000200050F8210040EA0708E91006F1200085
:1079300040F82180BDE8F0810000024000040240D0
:1079400000080240000C02400010024000140240F7
:1079500000180240001C02400020024000240240A7
:107960000028024054BE010870B504460D46184870
:1079700084421DD0174884421AD01748844217D039
:107980001648844214D01648844211D015488442C7
:107990000ED0154884420BD01448844208D01448B5
:1079A000844205D01348844202D01348844200D157
:1079B00004E04FF4DA71114807F072FBA8B200B18D
:1079C00004E040F2B5110D4807F06AFB658370BD15
:1079D000000002400004024000080240000C024087
:1079E000001002400014024000180240001C024037
:1079F00000200240002402400028024054BE01083A
:107A000070B504460D46184884421DD0174884427C
:107A10001AD01748844217D01648844214D016480A
:107A2000844211D0154884420ED0154884420BD0B0
:107A30001448844208D01448844205D01348844234
:107A400002D01348844200D104E040F29F11114853
:107A500007F026FBA8B200B104E04FF4D0710D4846
:107A600007F01EFB258370BD0000024000040240A9
:107A700000080240000C02400010024000140240C6
:107A800000180240001C0240002002400024024076
:107A90000028024054BE010800487047D46D002001
:107AA00000BFFEE7704710B54FF48041480300F077
:107AB000A5F84FF4A06000F07FF810BD08B51E20B7
:107AC0008DF8000001208DF8010000208DF80200E3
:107AD00001208DF80300684600F014F808BD38B5A1
:107AE000044620798DF8000003208DF80100002065
:107AF0008DF8020001208DF80300684600F002F8BE
:107B000038BD00002DE9F0410446002500270F266E
:107B1000E07810B1E078012800D103E08D212248FF
:107B200007F0BEFA6078102800DA03E08E211E48C4
:107B300007F0B6FAA078102800DA03E08F211A487F
:107B400007F0AEFAE07818B31848006800F4E06077
:107B5000C0F5E060C0F30725C5F10400C7B22E41AF
:107B60006078B840C5B2A078304005432807050EBC
:107B70000F4821784554207800F01F0101208840EB
:107B800021784911890001F1E021C1F8000109E0E3
:107B9000207800F01F010120884006492278521108
:107BA00041F82200BDE8F08180BC01080CED00E046
:107BB00000E400E080E100E010B50446B4F5E06FB9
:107BC0000BD0B4F5C06F08D0B4F5A06F05D0B4F5F4
:107BD000806F02D0B4F5407F00D103E079210448E2
:107BE00007F05EFA034820430349086010BD000017
:107BF00080BC01080000FA050CED00E070B50446F9
:107C00000D46B4F1005F02D0B4F1006F00D103E083
:107C1000B721094807F044FA0848854200D203E03A
:107C2000B821054807F03CFA054905EA0100204360
:107C30000449086070BD000080BC0108FFFF0F0010
:107C400080FFFF1F08ED00E000BF0A48006810F841
:107C5000080C0849096811F8041C0844054909681A
:107C600001F8080C03480068001F0249086000BFC3
:107C7000704700007C08002000BF0A48006850F8E8
:107C8000080C0849096851F8041C084405490968AA
:107C900041F8080C03480068001F0249086000BF53
:107CA000704700007C08002000BF0A48006830F8D8
:107CB000080C0849096831F8041C084400B2054959
:107CC000096821F8080C03480068001F0149086092
:107CD00000BF70477C08002000BF0A48006810F809
:107CE000080C0849096811F8041C0840054909688E
:107CF00001F8080C03480068001F0249086000BF33
:107D0000704700007C08002000BF0A48006850F857
:107D1000080C0849096851F8041C0840054909681D
:107D200041F8080C03480068001F0249086000BFC2
:107D3000704700007C08002000BF0A48006830F946
:107D4000080C0849096831F9041C0840054909680C
:107D500021F8080C03480068001F0249086000BFB2
:107D6000704700007C0800200448006810F8040CEC
:107D7000C0430249096801F8040C70477C080020E0
:107D80000448006850F8040CC0430249096841F8EF
:107D9000040C70477C0800200448006830F9040C8B
:107DA000C0430249096821F8040C70477C08002090
:107DB00010B5A4B0DF48006800781390DD48006873
:107DC000401CDC49086000201290DB480068001F5E
:107DD000D949086011E0D848006802681398401E2D
:107DE0001299401A14A941F82020D3480068001FB6
:107DF000D14908601298401C1290DDE912018842B6
:107E0000E9D3CD48006800681190139811286ED20C
:107E1000DFE800F0090E141D293747596E849CB61F
:107E2000D2F4F2F1F000002011998847109074E12B
:107E300014980F901199884710906EE115980F9043
:107E400014980E90119A0F999047109065E116982A
:107E50000F9015980E9014980D90119BDDE90E125D
:107E60009847109059E117980F9016980E90159812
:107E70000D9014980C90119C0DA90EC9A04710905C
:107E80004BE11898009017980F9016980E9015983F
:107E90000D9014980C90119C0DA90EC9A04710903C
:107EA0003BE1DDE91801CDE9000117980F90169824
:107EB0000E9015980D9014980C90119C0DA90EC958
:107EC000A047109029E1DDE919211898CDE9012199
:107ED000009017980F9016980E9015980D90149882
:107EE0000C90119C0DA90EC9A047109015E111E14D
:107EF000DDE9193218991B98CDE901320091039000
:107F000017980F9016980E9015980D9014980C9045
:107F1000119C0DA90EC9A0471090FEE0DDE91923C0
:107F2000DDE91B10CDE90123CDE90310189800907D
:107F300017980F9016980E9015980D9014980C9015
:107F4000119C0DA90EC9A0471090E6E0DDE91A23A7
:107F5000DDE91C10CDE90223CDE90410DDE91801AB
:107F6000CDE9000117980F9016980E9015980D9076
:107F700014980C90119C0DA90EC9A0471090CCE04C
:107F8000DDE91C321B991E98CDE90432039106905D
:107F9000DDE919211898CDE90121009017980F907B
:107FA00016980E9015980D9014980C90119C0DA990
:107FB0000EC9A0471090B0E0DDE91C23DDE91E10DA
:107FC000CDE90423CDE90610DDE9193218991B9893
:107FD000CDE901320091039017980F9016980E90FA
:107FE00015980D9014980C90119C0DA90EC9A047DE
:107FF000109092E068E043E020E0FFE7DDE91E3208
:108000001D992098CDE9063205910890DDE91923E4
:10801000DDE91B01CDE90123CDE9030118980090AA
:1080200017980F9016980E9015980D9014980C9024
:10803000119C0DA90EC9A04710906EE0DDE91E133A
:10804000DDE92002CDE90613CDE90802DDE91A23B6
:10805000DDE91C01CDE90223CDE90401DDE91801C8
:10806000CDE9000117980F9016980E9015980D9075
:1080700014980C90119C0DA90EC9A04710904CE0CB
:10808000DDE92031229A1F98CDE908310A92079044
:10809000DDE91B23DDE91D01CDE90323CDE9050160
:1080A000DDE919211898CDE90121009017980F906A
:1080B00016980E9015980D9014980C90119C0DA97F
:1080C0000EC9A047109028E0DDE9213220992398BD
:1080D000CDE9093208910B90DDE91D321C991F98FA
:1080E000CDE9053204910790DDE91823DDE91A1086
:1080F000CDE90023CDE9021017980F9016980E9045
:1081000015980D9014980C90119C0DA90EC9A047BC
:10811000109002E00020109000BF00BF06491098A8
:108120000968086004480068001D0349086024B01D
:1081300010BD0000800800207C08002000BF0A4815
:10814000006810F8080C0849096811F8041C90FB35
:10815000F1F00549096801F8080C03480068001FA0
:108160000149086000BF70477C08002000BF0A4832
:10817000006850F8080C0849096851F8041C90FB85
:10818000F1F00549096841F8080C03480068001F30
:108190000149086000BF70477C08002000BF0B4801
:1081A000006830F9080C0949096831F9041C90FB92
:1081B000F1F000B20549096821F8080C034800688D
:1081C000001F0249086000BF704700007C080020C3
:1081D000084800680078084909680870064800687F
:1081E000001D0549086003480068401C01490860FB
:1081F00070470000800800207C0800200F480068BD
:1082000000780E490968497840EA01200B4909685D
:10821000897840EA014009490968C97840EA016063
:1082200007490968086006480068001D044908609D
:1082300002480068001D014908607047800800205E
:108240007C0800201049096809780F4A12685278A2
:1082500041EA02210C4A1268927841EA02410A4A34
:108260001268D27841EA02600178084A12681170F7
:1082700006490968091D054A116003490968091D75
:10828000014A116070470000800800207C0800202F
:108290000449096851F8040C0178024A126802F88E
:1082A000041C70477C0800201049096809780F4AAF
:1082B0001268527841EA02210C4A1268927841EA27
:1082C00002410A4A1268D27841EA0260084A01680B
:1082D0001268116006490968091D054A11600349C1
:1082E0000968091D014A11607047000080080020DC
:1082F0007C0800200449096851F8040C024A01680E
:10830000126842F8041C70477C0800201049096874
:1083100009780F4A1268527841EA02210C4A126821
:10832000927841EA02410A4A1268D27841EA026030
:108330000188084A1268118006490968091D054A22
:10834000116003490968091D014A11607047000066
:10835000800800207C0800200449096851F8040CBA
:108360000188024A126822F8041C70477C08002029
:108370000B48006800780A490968497840EA0120FA
:1083800000B208490968088006480068001D0549D0
:10839000086003480068801C0149086070470000BD
:1083A000800800207C08002000BF0B48006810F8FF
:1083B000080C0949096811F8041C90FBF1F201FB53
:1083C00012000549096801F8080C03480068001FFD
:1083D0000149086000BF70477C08002000BF0B48BF
:1083E000006850F8080C0949096851F8041C90FB12
:1083F000F1F201FB12000549096841F8080C034835
:108400000068001F0149086000BF70477C08002019
:1084100000BF0B48006830F9080C0949096831F9B8
:10842000041C90FBF1F201FB12000549096821F8D8
:10843000080C03480068001F0149086000BF70472E
:108440007C08002000BF0A48006810F8080C0849A2
:10845000096811F8041C10FB01F00549096801F8CE
:10846000080C03480068001F0149086000BF7047FE
:108470007C08002000BF0A48006850F8080C084932
:10848000096851F8041C48430549096841F8080C7B
:1084900003480068001F0249086000BF70470000E1
:1084A0007C08002000BF0B48006830F8080C094920
:1084B000096831F8041C10FB01F000B20549096895
:1084C00021F8080C03480068001F0249086000BF3B
:1084D000704700007C0800207047000000BF0A4879
:1084E000006810F8080C0849096811F8041C0843D2
:1084F0000549096801F8080C03480068001F024993
:10850000086000BF704700007C08002000BF0A48D8
:10851000006850F8080C0849096851F8041C084321
:108520000549096841F8080C03480068001F024922
:10853000086000BF704700007C08002000BF0A48A8
:10854000006830F9080C0849096831F9041C08432F
:108550000549096821F8080C03480068001F024912
:10856000086000BF704700007C08002002480068D7
:10857000001F0149086070477C08002000BF0A48BE
:10858000006810F8080C0849096811F8041C8840B4
:108590000549096801F8080C03480068001F0249F2
:1085A000086000BF704700007C08002000BF0A4838
:1085B000006850F8080C0849096811F8041C884044
:1085C0000549096841F8080C03480068001F024982
:1085D000086000BF704700007C08002000BF0A4808
:1085E000006830F8080C0849096811F8041C884034
:1085F00000B20549096821F8080C03480068001F0B
:108600000149086000BF70477C08002000BF0A488D
:10861000006810F8080C0849096811F8041C0841A2
:108620000549096801F8080C03480068001F024961
:10863000086000BF704700007C08002000BF0A48A7
:10864000006850F8080C0849096811F8041C084132
:108650000549096841F8080C03480068001F0249F1
:10866000086000BF704700007C08002000BF0A4877
:10867000006830F9080C0849096811F8041C084121
:108680000549096821F8080C03480068001F0249E1
:10869000086000BF704700007C08002007480068A1
:1086A00010F8040C0549096851F8081C08700348C3
:1086B0000068001F01490860704700007C08002026
:1086C0000748006850F8040C0549096851F8081C6F
:1086D000086003480068001F0149086070470000F7
:1086E0007C0800200748006830F8040C0549096838
:1086F00051F8081C088003480068001F0149086001
:10870000704700007C08002000BF0A48006810F88D
:10871000080C0849096811F8041C401A0549096841
:1087200001F8080C03480068001F0249086000BFF8
:10873000704700007C08002000BF0A48006850F81D
:10874000080C0849096851F8041C401A05490968D1
:1087500041F8080C03480068001F0249086000BF88
:10876000704700007C08002000BF0A48006830F80D
:10877000080C0849096831F8041C401A00B2054980
:10878000096821F8080C03480068001F01490860C7
:1087900000BF70477C08002000BF0A48006810F83E
:1087A000080C0849096811F8041C48400549096883
:1087B00001F8080C03480068001F0249086000BF68
:1087C000704700007C08002000BF0A48006850F88D
:1087D000080C0849096851F8041C48400549096813
:1087E00041F8080C03480068001F0249086000BFF8
:1087F000704700007C08002000BF0A48006830F97C
:10880000080C0849096831F9041C48400549096801
:1088100021F8080C03480068001F0249086000BFE7
:10882000704700007C08002001460A4801600120D2
:10883000094A10700020094A1080064A12685269DD
:108840001070044A126812691070FF20044A1070F8
:1088500000207047D4080020CC080020DC0800204D
:10886000C408002070B504460D461048204008B9E1
:1088700004B104E040F29D710D4806F011FC0DB109
:10888000012D00D104E040F29F71094806F008FC78
:108890002DB10848006820430649086004E00548F7
:1088A0000068A0430349086070BD000000E80B01A8
:1088B000A4BE01083038024070B504460D4624F0CD
:1088C000010008B904B104E040F2DB710C4806F085
:1088D000E7FB0DB1012D00D104E040F2DC71084846
:1088E00006F0DEFB2DB1074800682043054908600B
:1088F00004E004480068A0430249086070BD00001D
:10890000A4BE01083838024070B504460D4604F490
:10891000585008B904B104E040F614010C4806F0C0
:10892000BFFB0DB1012D00D104E040F61501084850
:1089300006F0B6FB2DB107480068204305490860E2
:1089400004E004480068A0430249086070BD0000CC
:10895000A4BE01084038024070B504460D4604F438
:10896000585008B904B104E040F6DD010C4806F0A7
:1089700097FB0DB1012D00D104E040F6DE0108485F
:1089800006F08EFB2DB107480068204305490860BA
:1089900004E004480068A0430249086070BD00007C
:1089A000A4BE01082038024070B504460D461048A8
:1089B000204008B904B104E040F644010D4806F037
:1089C0006FFB0DB1012D00D104E040F645010948CF
:1089D00006F066FB2DB10848006820430649086090
:1089E00004E005480068A0430349086070BD00002A
:1089F000CC8008F2A4BE01084438024070B5044699
:108A00000D461048204008B904B104E040F60811B2
:108A10000D4806F045FB0DB1012D00D104E040F6F4
:108A20000911094806F03CFB2DB1084800682043B5
:108A30000649086004E005480068A043034908604F
:108A400070BD0000CC8608F2A4BE010824380240A4
:108A500010B501210420FFF757FF10BD10B501210B
:108A60000846FFF7FFFE01211020FFF79DFF10BD14
:108A7000F0B5002100220024022500260223324FF7
:108A80003F6807F00C0121B1042905D0082937D12E
:108A900005E02E4F076036E02D4F076033E02A4F88
:108AA0003F1F3F68C7F38056274F3F1F3F6807F0BF
:108AB0003F036EB1264FB7FBF3F7DFF88CC0ACF184
:108AC000040CDCF800C0CCF3881C07FB0CF40CE0B1
:108AD0001E4FB7FBF3F7DFF870C0ACF1040CDCF805
:108AE00000C0CCF3881C07FB0CF4174F3F1F3F68F6
:108AF000C7F301477F1C7D00B4FBF5F7076002E078
:108B0000124F076000BF00BF0F4F3F6807F0F00132
:108B10000909104F7A5C0768D74047600A4F3F68E1
:108B200007F4E051890A0B4F7A5C4768D7408760A9
:108B3000054F3F6807F46041490B064F7A5C476870
:108B4000D740C760F0BD0000083802400024F400A0
:108B500040787D016404002070B504460D46164837
:108B600084420ED0154884420BD01548844208D068
:108B70001448844205D01448844202D013488442E9
:108B800000D104E040F29531114806F089FA0DB1A8
:108B9000012D00D104E040F296310D4806F080FA34
:108BA00025B1208840F40050208004E020884DF654
:108BB000FF710840208070BD003001400038004047
:108BC000003C00400034014000500140005401408E
:108BD000F4BE010870B504460D46164884420ED016
:108BE000154884420BD01548844208D0144884426A
:108BF00005D01448844202D01348844200D104E0D6
:108C000040F22321114806F04BFA0DB1012D00D19D
:108C100004E04FF409710D4806F042FA25B12088AE
:108C200040F04000208004E020884FF6BF710840EB
:108C3000208070BD0030014000380040003C004002
:108C4000003401400050014000540140F4BE0108CE
:108C500010B50446304884420ED0304884420BD0D0
:108C60002F48844208D02F48844205D02E488442A1
:108C700002D02E48844200D103E0E3212C4806F0C4
:108C80000FFA2548844208D101218014FFF7B6FE6F
:108C90000021A014FFF7B2FE3CE02048844208D136
:108CA00001210014FFF758FE00212014FFF754FEA5
:108CB00030E01B48844208D10121C013FFF74CFE6D
:108CC0000021E013FFF748FE24E01648844208D153
:108CD00001214014FFF792FE00216014FFF78EFE81
:108CE00018E01148844209D101210805FFF786FEEA
:108CF00000214FF48010FFF781FE0BE00B48844207
:108D000008D101214805FFF779FE00214FF400103A
:108D1000FFF774FE10BD0000003001400038004035
:108D2000003C00400034014000500140005401402C
:108D3000F4BE010870B505460C4600261F48854262
:108D400014D01F48854211D01E4885420ED01E48BF
:108D500085420BD01D48854208D01D48854205D06C
:108D60001C48854202D0B5F1402F00D104E040F20A
:108D70009441194806F094F9802C10D0402C0ED064
:108D8000202C0CD0102C0AD0082C08D0042C06D093
:108D9000022C04D0012C02D0B4F5807F00D104E075
:108DA00040F295410C4806F07BF92889204008B133
:108DB000012600E00026304670BD00000030014072
:108DC00000380040003C00400034014000500140A9
:108DD0000054014000340040F4BE010810B50446C0
:108DE0000F48844214D00F48844211D00E48844268
:108DF0000ED00E4884420BD00D48844208D00D4856
:108E0000844205D00C48844202D0B4F1402F00D1F6
:108E100004E040F22B31094806F042F9A08910BD68
:108E20000030014000380040003C00400034014068
:108E3000005001400054014000340040F4BE0108DD
:108E400070B504460D461048844214D00F48844241
:108E500011D00F4884420ED00E4884420BD00E48E9
:108E6000844208D00D48844205D00D48844202D087
:108E7000B4F1402F00D104E040F23B31094806F044
:108E80000FF9A58170BD000000300140003800409E
:108E9000003C0040003401400050014000540140BB
:108EA00000340040F4BE010870B505460C460026AB
:108EB000594885420ED0594885420BD058488542C2
:108EC00008D05848854205D05748854202D05748B7
:108ED000854200D104E040F22111554806F0E0F847
:108EE000208858B12088B0F5806F07D02088B0F571
:108EF000004F03D02088B0F5404F00D104E04FF47C
:108F000092714B4806F0CCF86088B0F5827F01D0B2
:108F1000608800B904E040F22511454806F0C0F829
:108F2000A088B0F5006F01D0A08800B904E04FF42C
:108F300093713F4806F0B4F8E08810B1E088022849
:108F400000D104E040F22711394806F0A9F8208941
:108F500010B12089012800D104E04FF49471344805
:108F600006F09EF86089B0F5007F01D0608900B9F5
:108F700004E040F229112E4806F092F8A089A0B131
:108F8000A089082811D0A08910280ED0A0891828FF
:108F90000BD0A089202808D0A089282805D0A08936
:108FA000302802D0A089382800D104E04FF4957110
:108FB0001F4806F075F8E08910B1E089802800D1DB
:108FC00004E040F22B111A4806F06AF8208A0128C2
:108FD00000DB04E04FF49671154806F061F82E8826
:108FE00006F44156208861880843A1880843E18837
:108FF00008432189084361890843A1890843E1891D
:10900000084306432E80A88B4FF2FF710840A883C7
:10901000208A288270BD00000030014000380040E6
:10902000003C004000340140005001400054014029
:10903000F4BE01080021018041808180C18001814E
:1090400041818181C1810721018270477047000001
:1090500010B504462A2C05DA2146034802F0F7FF32
:10906000FCF796FC10BD0000687700200CB50020CE
:10907000019000903448006840F480303249086024
:1090800000BF3148006800F4003000900198401C97
:109090000190009818B90198B0F5A04FF1D12A4875
:1090A000006800F4003010B10120009001E00020C1
:1090B00000900098012846D123484030006840F0D5
:1090C00080502149403108602048006840F4404009
:1090D0001E4908601C48083000681B4908310860B8
:1090E0000846006840F4004008600846006840F404
:1090F000A05008601648091F0860081F006840F06B
:109100008070091F086000BF0F48006800F0007001
:109110000028F9D040F205600E4908600A4808307E
:10912000006820F00300084908310860084600681C
:1091300040F00200086000BF03480830006800F0FB
:109140000C000828F8D10CBD003802400070004027
:1091500019544007003C024010B50446042C01D0CD
:10916000601D00B903E0E2210B4805F099FF042CD3
:1091700008D14FF0E020006940F004004FF0E021FA
:10918000086107E04FF0E020006920F004004FF094
:10919000E021086110BD000080BC01087FB5684671
:1091A000FFF766FC4FF47A710198B0FBF1F4E40824
:1091B0002146481EB0F1807F00D31BE0481E4FF0CF
:1091C000E022506150170F22002807DA13071E0E05
:1091D0000B4B00F00F052D1F5E5503E013071D0E0E
:1091E000084B1D5400BF00204FF0E0229061072083
:1091F000106100BF6FF00400FFF7AEFF7FBD0000FD
:1092000018ED00E000E400E010B50DF07DFB0FF07C
:1092100063FF0DF091FB10BD10B51548006840F4D8
:109220007000134908601348006840F001001149BC
:10923000086000200F49083108600E4800680E4998
:1092400008400C4908600D48091D0860081F0068A7
:1092500020F48020091F0860002006490C310860B6
:10926000FFF704FF4FF0006001498039086010BD2E
:1092700088ED00E000380240FFFFF6FE10300024C9
:1092800010B5FDF7CDFAFDF717FAFDF76BFAFDF70C
:1092900011FB012010BD00000EB5002000900190D0
:1092A0000290144800F0CEFB092001900020ADF898
:1092B0000000ADF80800ADF8020069460D4800F066
:1092C00009FF012242F2CF010A4800F055FE0121B8
:1092D000084800F01DFA0121064800F07DFA01223D
:1092E0001146044800F0A6FC0121024800F018FBDA
:1092F0000EBD00000008004010B5802010F0DAFD1F
:109300000749086001217820FFF7ACFA01210846DF
:10931000FFF7D2FA09F054FB09F0E6FA012010BD7C
:109320005804002000B5A1B018211BA8FBF7C9FA0A
:109330003C210CA8FBF7C5FA002009900A900B907D
:10934000142104A8FBF7BDFA0020009001900290C0
:1093500003901C2010F0AEFDA0490860FBF758FFF9
:1093600001214FF4A060FFF71FFB01218805FFF7E3
:1093700079FA01210220FFF717FB00219848FBF73B
:1093800009FE00219748FBF705FE09A800F04AFFF7
:109390004FF4FA700A900020ADF82400ADF82C00CC
:1093A000ADF8260009A9904800F094FE0122A721FB
:1093B0008D4800F0E1FD6020ADF810000120ADF80F
:1093C0001200642006900220ADF81C0004A9864813
:1093D00000F09CFC0821844800F078FD8348FDF7EC
:1093E000B1FB00200C907E484C300D9080480E90D0
:1093F00000200F903C201090002011904FF48060CE
:10940000129040001390800014904011159040027B
:1094100016900020179001201890002019901A90A3
:109420000CA97248FDF782FC70481830FDF78AFBE2
:109430004FF080600C906B484C300D906D480E9052
:1094400000200F903C201090002011904FF480607D
:10945000129040001390800014904011159040022B
:1094600016900020179001201890002019901A9053
:109470000CA95E481830FDF759FC002000904FF40D
:10948000803001900020029003906846FBF7B0FD09
:1094900000201B9001208DF8700000208DF87100D5
:1094A0004FF000501D904FF050601E9000201F9014
:1094B00006208DF880001BA94948FBF7DBFE072337
:1094C000012204214648FBF7ABFF072302220521B6
:1094D0004348FBF7A5FF0723032206214048FBF77B
:1094E0009FFF0723042219463D48FBF799FF0723F6
:1094F000052208213A48FBF793FF0723062209219A
:109500003748FBF78DFF00201B9001208DF870007D
:1095100000208DF871004FF000501D904FF050600A
:109520001E9000201F9006208DF880001BA92D485A
:10953000FBF7A0FE0723012211462A48FBF770FF24
:109540000723022211462748FBF76AFF072303225D
:1095500011462448FBF764FF072304220A2121480F
:10956000FBF75EFF072305220B211E48FBF758FF80
:10957000072306220C211B48FBF752FF0121184844
:10958000FBF718FE01211748FBF714FE01211748CD
:10959000FDF732FA01211248FBF7DEFD01211048E8
:1095A000FBF7F8FC012111481830FDF725FA0121DD
:1095B0000C48FBF7D1FD01210A48FBF7EBFC012128
:1095C000094800F0A5F80121074800F0A9F9012198
:1095D000054800F009FA002021B000BD6004002019
:1095E00000200140002201400004014010640240BC
:1095F00088AA002000AB00202DE9F04100231A4684
:1096000015A117480EF0A6FA044600231A4615A124
:1096100016480EF09FFA054600231A4614A1164874
:109620000EF098FA064600231A4614A114480EF0CC
:1096300091FA0746FFF70CFAFEF740FAFFF72CFE07
:1096400034B92CB925B91EB917B90020BDE8F0818D
:109650004FF0FF30FAE700006164696F000000001E
:1096600028A600206C6F67696300000048A60020F0
:10967000636F6D6D5478000068A6002063616E0012
:1096800088A6002010B50DF03FF901210B4800F02D
:10969000F5F80B4801780078401C094A1070052045
:1096A00091FBF0F200FB121020B906480EF076FA9A
:1096B000FCF75AF90DF040F910BD00000008004019
:1096C0003404002028A6002010B50DF01DF90C4828
:1096D0000068C0F500700B4908600CF0DFF80A481C
:1096E000407A10B108480EF059FA0021074800F0FE
:1096F00017F90121054800F06FF80DF01DF910BDB4
:109700008C6402404804002008AA00200014004095
:1097100070B504460D462248844226D0B4F1804FED
:1097200023D02048844220D01F4884421DD01F48A7
:1097300084421AD01E48844217D01E48844214D056
:109740001D48844211D01D4884420ED01C488442DA
:109750000BD01C48844208D01B48844205D01B48CB
:10976000844202D01A48844200D104E040F20D2124
:10977000184805F095FC0DB1012D00D104E040F230
:109780000E21144805F08CFC25B1208840F08000A3
:10979000208004E020884FF67F710840208070BD53
:1097A000000001400004004000080040000C0040A0
:1097B000001000400014004000040140004001403F
:1097C000004401400048014000180040001C0040D7
:1097D0000020004044BF010870B504460D461948FA
:1097E000844226D0B4F1804F23D01748844220D041
:1097F000164884421DD0164884421AD01548844227
:1098000017D01548844214D01448844211D014480B
:1098100084420ED0134884420BD01348844208D0AF
:109820001248844205D01248844202D01148844232
:1098300000D104E040F6B8110F4805F031FCE843D0
:10984000208270BD0000014000040040000800407C
:10985000000C0040001000400014004000040140D3
:109860000040014000440140004801400018004011
:10987000001C00400020004044BF010870B50446B1
:109880000D461948844226D0B4F1804F23D01748A2
:10989000844220D0164884421DD0164884421AD0F3
:1098A0001548844217D01548844214D01448844285
:1098B00011D0144884420ED0134884420BD0134870
:1098C000844208D01248844205D01248844202D013
:1098D0001148844200D104E040F6FD110F4805F024
:1098E000DFFBE843208270BD00000140000400401F
:1098F00000080040000C0040001000400014004030
:109900000004014000400140004401400048014083
:1099100000180040001C00400020004044BF010827
:1099200070B504460D462248844226D0B4F1804FDB
:1099300023D02048844220D01F4884421DD01F4895
:1099400084421AD01E48844217D01E48844214D044
:109950001D48844211D01D4884420ED01C488442C8
:109960000BD01C48844208D01B48844205D01B48B9
:10997000844202D01A48844200D104E040F25321CC
:10998000184805F08DFB0DB1012D00D104E04FF416
:109990001571144805F084FB25B1208840F00100C2
:1099A000208004E020884FF6FE710840208070BDC2
:1099B000000001400004004000080040000C00408E
:1099C000001000400014004000040140004001402D
:1099D000004401400048014000180040001C0040C5
:1099E0000020004044BF010870B504460D461248EF
:1099F000844202D01148844200D104E040F6DC01E8
:109A00000F4805F04DFB0DB1012D00D104E040F6EB
:109A1000DD010B4805F044FB35B1B4F8440040F4D7
:109A20000040A4F8440005E0B4F84400C0F30E0080
:109A3000A4F8440070BD0000000001400004014093
:109A400044BF010810B504466C48844226D0B4F1E6
:109A5000804F23D06A48844220D06A4884421DD077
:109A6000694884421AD06948844217D068488442C1
:109A700014D06848844211D0674884420ED06748A9
:109A800084420BD06648844208D06648844205D0A0
:109A90006548844202D06548844200D103E0CB216E
:109AA000634805F0FDFA5548844208D10121084673
:109AB000FEF7A4FF00210120FEF7A0FF9DE0B4F116
:109AC000804F08D101210846FEF746FF0021012002
:109AD000FEF742FF91E04A48844208D1012102206A
